{
  "contractName": "AdmissionProcess",
  "abi": [
    {
      "inputs": [],
      "stateMutability": "nonpayable",
      "type": "constructor"
    },
    {
      "inputs": [],
      "name": "EmptyArgs",
      "type": "error"
    },
    {
      "inputs": [],
      "name": "EmptySource",
      "type": "error"
    },
    {
      "inputs": [],
      "name": "NoInlineSecrets",
      "type": "error"
    },
    {
      "inputs": [],
      "name": "OnlyRouterCanFulfill",
      "type": "error"
    },
    {
      "inputs": [
        {
          "internalType": "bytes32",
          "name": "requestId",
          "type": "bytes32"
        }
      ],
      "name": "UnexpectedRequestID",
      "type": "error"
    },
    {
      "anonymous": false,
      "inputs": [
        {
          "indexed": true,
          "internalType": "address",
          "name": "from",
          "type": "address"
        },
        {
          "indexed": true,
          "internalType": "address",
          "name": "to",
          "type": "address"
        }
      ],
      "name": "OwnershipTransferRequested",
      "type": "event"
    },
    {
      "anonymous": false,
      "inputs": [
        {
          "indexed": true,
          "internalType": "address",
          "name": "from",
          "type": "address"
        },
        {
          "indexed": true,
          "internalType": "address",
          "name": "to",
          "type": "address"
        }
      ],
      "name": "OwnershipTransferred",
      "type": "event"
    },
    {
      "anonymous": false,
      "inputs": [
        {
          "indexed": true,
          "internalType": "bytes32",
          "name": "id",
          "type": "bytes32"
        }
      ],
      "name": "RequestFulfilled",
      "type": "event"
    },
    {
      "anonymous": false,
      "inputs": [
        {
          "indexed": true,
          "internalType": "bytes32",
          "name": "id",
          "type": "bytes32"
        }
      ],
      "name": "RequestSent",
      "type": "event"
    },
    {
      "anonymous": false,
      "inputs": [
        {
          "indexed": true,
          "internalType": "bytes32",
          "name": "requestId",
          "type": "bytes32"
        },
        {
          "indexed": false,
          "internalType": "string",
          "name": "character",
          "type": "string"
        },
        {
          "indexed": false,
          "internalType": "bytes",
          "name": "response",
          "type": "bytes"
        },
        {
          "indexed": false,
          "internalType": "bytes",
          "name": "err",
          "type": "bytes"
        }
      ],
      "name": "Response",
      "type": "event"
    },
    {
      "inputs": [],
      "name": "acceptOwnership",
      "outputs": [],
      "stateMutability": "nonpayable",
      "type": "function"
    },
    {
      "inputs": [
        {
          "internalType": "string",
          "name": "",
          "type": "string"
        }
      ],
      "name": "checkResults",
      "outputs": [
        {
          "internalType": "string",
          "name": "",
          "type": "string"
        }
      ],
      "stateMutability": "view",
      "type": "function",
      "constant": true
    },
    {
      "inputs": [
        {
          "internalType": "string",
          "name": "",
          "type": "string"
        }
      ],
      "name": "fulfilled",
      "outputs": [
        {
          "internalType": "bool",
          "name": "",
          "type": "bool"
        }
      ],
      "stateMutability": "view",
      "type": "function",
      "constant": true
    },
    {
      "inputs": [
        {
          "internalType": "bytes32",
          "name": "requestId",
          "type": "bytes32"
        },
        {
          "internalType": "bytes",
          "name": "response",
          "type": "bytes"
        },
        {
          "internalType": "bytes",
          "name": "err",
          "type": "bytes"
        }
      ],
      "name": "handleOracleFulfillment",
      "outputs": [],
      "stateMutability": "nonpayable",
      "type": "function"
    },
    {
      "inputs": [],
      "name": "owner",
      "outputs": [
        {
          "internalType": "address",
          "name": "",
          "type": "address"
        }
      ],
      "stateMutability": "view",
      "type": "function",
      "constant": true
    },
    {
      "inputs": [],
      "name": "s_checkresult",
      "outputs": [
        {
          "internalType": "string",
          "name": "",
          "type": "string"
        }
      ],
      "stateMutability": "view",
      "type": "function",
      "constant": true
    },
    {
      "inputs": [],
      "name": "s_lastError",
      "outputs": [
        {
          "internalType": "bytes",
          "name": "",
          "type": "bytes"
        }
      ],
      "stateMutability": "view",
      "type": "function",
      "constant": true
    },
    {
      "inputs": [],
      "name": "s_lastFullfilledRequestId",
      "outputs": [
        {
          "internalType": "bytes32",
          "name": "",
          "type": "bytes32"
        }
      ],
      "stateMutability": "view",
      "type": "function",
      "constant": true
    },
    {
      "inputs": [],
      "name": "s_lastRequestId",
      "outputs": [
        {
          "internalType": "bytes32",
          "name": "",
          "type": "bytes32"
        }
      ],
      "stateMutability": "view",
      "type": "function",
      "constant": true
    },
    {
      "inputs": [],
      "name": "s_lastResponse",
      "outputs": [
        {
          "internalType": "bytes",
          "name": "",
          "type": "bytes"
        }
      ],
      "stateMutability": "view",
      "type": "function",
      "constant": true
    },
    {
      "inputs": [],
      "name": "s_temp_appno",
      "outputs": [
        {
          "internalType": "bytes32",
          "name": "",
          "type": "bytes32"
        }
      ],
      "stateMutability": "view",
      "type": "function",
      "constant": true
    },
    {
      "inputs": [
        {
          "internalType": "address",
          "name": "to",
          "type": "address"
        }
      ],
      "name": "transferOwnership",
      "outputs": [],
      "stateMutability": "nonpayable",
      "type": "function"
    },
    {
      "inputs": [
        {
          "internalType": "uint64",
          "name": "subscriptionId",
          "type": "uint64"
        },
        {
          "internalType": "string[]",
          "name": "args",
          "type": "string[]"
        },
        {
          "internalType": "string",
          "name": "applNo",
          "type": "string"
        }
      ],
      "name": "sendRequest",
      "outputs": [
        {
          "internalType": "bytes32",
          "name": "requestId",
          "type": "bytes32"
        }
      ],
      "stateMutability": "nonpayable",
      "type": "function"
    },
    {
      "inputs": [
        {
          "internalType": "string",
          "name": "str",
          "type": "string"
        }
      ],
      "name": "stringToBytes32",
      "outputs": [
        {
          "internalType": "bytes32",
          "name": "",
          "type": "bytes32"
        }
      ],
      "stateMutability": "pure",
      "type": "function",
      "constant": true
    }
  ],
  "bytecode": "0x60a0604052736e2dc0f9db014ae19888f539e59285d2ea04244c600960046101000a81548173ffffffffffffffffffffffffffffffffffffffff021916908373ffffffffffffffffffffffffffffffffffffffff16021790555060405180610380016040528061035b8152602001620037cd61035b9139600a9081620000869190620005c8565b50620493e0600b5f6101000a81548163ffffffff021916908363ffffffff1602179055507f66756e2d706f6c79676f6e2d6d756d6261692d310000000000000000000000005f1b600c55348015620000dc575f80fd5b5033805f600960049054906101000a900473ffffffffffffffffffffffffffffffffffffffff168073ffffffffffffffffffffffffffffffffffffffff1660808173ffffffffffffffffffffffffffffffffffffffff1681525050505f73ffffffffffffffffffffffffffffffffffffffff168273ffffffffffffffffffffffffffffffffffffffff1603620001a9576040517f08c379a0000000000000000000000000000000000000000000000000000000008152600401620001a0906200070a565b60405180910390fd5b815f806101000a81548173ffffffffffffffffffffffffffffffffffffffff021916908373ffffffffffffffffffffffffffffffffffffffff1602179055505f73ffffffffffffffffffffffffffffffffffffffff168173ffffffffffffffffffffffffffffffffffffffff16146200022e576200022d816200023760201b60201c565b5b50505062000798565b3373ffffffffffffffffffffffffffffffffffffffff168173ffffffffffffffffffffffffffffffffffffffff1603620002a8576040517f08c379a00000000000000000000000000000000000000000000000000000000081526004016200029f9062000778565b60405180910390fd5b8060015f6101000a81548173ffffffffffffffffffffffffffffffffffffffff021916908373ffffffffffffffffffffffffffffffffffffffff1602179055508073ffffffffffffffffffffffffffffffffffffffff165f8054906101000a900473ffffffffffffffffffffffffffffffffffffffff1673ffffffffffffffffffffffffffffffffffffffff167fed8889f560326eb138920d842192f0eb3dd22b4f139c87a2c57538e05bae127860405160405180910390a350565b5f81519050919050565b7f4e487b71000000000000000000000000000000000000000000000000000000005f52604160045260245ffd5b7f4e487b71000000000000000000000000000000000000000000000000000000005f52602260045260245ffd5b5f6002820490506001821680620003e057607f821691505b602082108103620003f657620003f56200039b565b5b50919050565b5f819050815f5260205f209050919050565b5f6020601f8301049050919050565b5f82821b905092915050565b5f600883026200045a7fffffffffffffffffffffffffffffffffffffffffffffffffffffffffffffffff826200041d565b6200046686836200041d565b95508019841693508086168417925050509392505050565b5f819050919050565b5f819050919050565b5f620004b0620004aa620004a4846200047e565b62000487565b6200047e565b9050919050565b5f819050919050565b620004cb8362000490565b620004e3620004da82620004b7565b84845462000429565b825550505050565b5f90565b620004f9620004eb565b62000506818484620004c0565b505050565b5b818110156200052d57620005215f82620004ef565b6001810190506200050c565b5050565b601f8211156200057c576200054681620003fc565b62000551846200040e565b8101602085101562000561578190505b6200057962000570856200040e565b8301826200050b565b50505b505050565b5f82821c905092915050565b5f6200059e5f198460080262000581565b1980831691505092915050565b5f620005b883836200058d565b9150826002028217905092915050565b620005d38262000364565b67ffffffffffffffff811115620005ef57620005ee6200036e565b5b620005fb8254620003c8565b6200060882828562000531565b5f60209050601f8311600181146200063e575f841562000629578287015190505b620006358582620005ab565b865550620006a4565b601f1984166200064e86620003fc565b5f5b82811015620006775784890151825560018201915060208501945060208101905062000650565b8683101562000697578489015162000693601f8916826200058d565b8355505b6001600288020188555050505b505050505050565b5f82825260208201905092915050565b7f43616e6e6f7420736574206f776e657220746f207a65726f00000000000000005f82015250565b5f620006f2601883620006ac565b9150620006ff82620006bc565b602082019050919050565b5f6020820190508181035f8301526200072381620006e4565b9050919050565b7f43616e6e6f74207472616e7366657220746f2073656c660000000000000000005f82015250565b5f62000760601783620006ac565b91506200076d826200072a565b602082019050919050565b5f6020820190508181035f830152620007918162000752565b9050919050565b608051613015620007b85f395f81816102c2015261103301526130155ff3fe608060405234801561000f575f80fd5b50600436106100e8575f3560e01c806379ba50971161008a578063b1e2174911610064578063b1e2174914610226578063cfb5192814610244578063ef725b1114610274578063f2fde38b146102a4576100e8565b806379ba5097146101e05780638da5cb5b146101ea5780638e35b5ae14610208576100e8565b806336301397116100c657806336301397146101565780633944ea3a146101745780634b0795a8146101925780635fd860e7146101b0576100e8565b80630ca76175146100ec57806312e4e0a61461010857806333b2db6014610126575b5f80fd5b61010660048036038101906101019190611dde565b6102c0565b005b610110610382565b60405161011d9190611e75565b60405180910390f35b610140600480360381019061013b9190611f2c565b610388565b60405161014d9190611f8d565b60405180910390f35b61015e6103bd565b60405161016b9190612020565b60405180910390f35b61017c610449565b6040516101899190612092565b60405180910390f35b61019a6104d5565b6040516101a79190612092565b60405180910390f35b6101ca60048036038101906101c59190611f2c565b610561565b6040516101d79190612020565b60405180910390f35b6101e8610614565b005b6101f26107a3565b6040516101ff91906120f1565b60405180910390f35b6102106107ca565b60405161021d9190611e75565b60405180910390f35b61022e6107d0565b60405161023b9190611e75565b60405180910390f35b61025e60048036038101906102599190611f2c565b6107d6565b60405161026b9190611e75565b60405180910390f35b61028e600480360381019061028991906121a4565b610834565b60405161029b9190611e75565b60405180910390f35b6102be60048036038101906102b9919061225b565b61098d565b005b7f000000000000000000000000000000000000000000000000000000000000000073ffffffffffffffffffffffffffffffffffffffff163373ffffffffffffffffffffffffffffffffffffffff1614610345576040517fc6829f8300000000000000000000000000000000000000000000000000000000815260040160405180910390fd5b6103508383836109a1565b827f85e1543bf2f84fe80c6badbce3648c8539ad1df4d2b3d822938ca0538be727e660405160405180910390a2505050565b60065481565b6007818051602081018201805184825260208301602085012081835280955050505050505f915054906101000a900460ff1681565b600d80546103ca906122b3565b80601f01602080910402602001604051908101604052809291908181526020018280546103f6906122b3565b80156104415780601f1061041857610100808354040283529160200191610441565b820191905f5260205f20905b81548152906001019060200180831161042457829003601f168201915b505050505081565b60048054610456906122b3565b80601f0160208091040260200160405190810160405280929190818152602001828054610482906122b3565b80156104cd5780601f106104a4576101008083540402835291602001916104cd565b820191905f5260205f20905b8154815290600101906020018083116104b057829003601f168201915b505050505081565b600580546104e2906122b3565b80601f016020809104026020016040519081016040528092919081815260200182805461050e906122b3565b80156105595780601f1061053057610100808354040283529160200191610559565b820191905f5260205f20905b81548152906001019060200180831161053c57829003601f168201915b505050505081565b6008818051602081018201805184825260208301602085012081835280955050505050505f915090508054610595906122b3565b80601f01602080910402602001604051908101604052809291908181526020018280546105c1906122b3565b801561060c5780601f106105e35761010080835404028352916020019161060c565b820191905f5260205f20905b8154815290600101906020018083116105ef57829003601f168201915b505050505081565b60015f9054906101000a900473ffffffffffffffffffffffffffffffffffffffff1673ffffffffffffffffffffffffffffffffffffffff163373ffffffffffffffffffffffffffffffffffffffff16146106a3576040517f08c379a000000000000000000000000000000000000000000000000000000000815260040161069a9061232d565b60405180910390fd5b5f805f9054906101000a900473ffffffffffffffffffffffffffffffffffffffff169050335f806101000a81548173ffffffffffffffffffffffffffffffffffffffff021916908373ffffffffffffffffffffffffffffffffffffffff1602179055505f60015f6101000a81548173ffffffffffffffffffffffffffffffffffffffff021916908373ffffffffffffffffffffffffffffffffffffffff1602179055503373ffffffffffffffffffffffffffffffffffffffff168173ffffffffffffffffffffffffffffffffffffffff167f8be0079c531659141344cd1fd0a4f28419497f9722a3daafe3b4186f6b6457e060405160405180910390a350565b5f805f9054906101000a900473ffffffffffffffffffffffffffffffffffffffff16905090565b60035481565b60025481565b5f80829050602081511115610820576040517f08c379a000000000000000000000000000000000000000000000000000000000815260040161081790612395565b60405180910390fd5b5f6020820180519150508092505050919050565b5f61083d610b38565b5f801b60028190555061084e611b9f565b6108e9600a805461085e906122b3565b80601f016020809104026020016040519081016040528092919081815260200182805461088a906122b3565b80156108d55780601f106108ac576101008083540402835291602001916108d5565b820191905f5260205f20905b8154815290600101906020018083116108b857829003601f168201915b505050505082610bc790919063ffffffff16565b5f858590501115610914576109138585906109049190612464565b82610bd790919063ffffffff16565b5b61093b61092082610c1e565b87600b5f9054906101000a900463ffffffff16600c5461102f565b6002819055505f60078460405161095291906124b2565b90815260200160405180910390205f6101000a81548160ff0219169083151502179055505f801b600381905550600254915050949350505050565b610995610b38565b61099e8161110e565b50565b82600254146109e757826040517fd068bf5b0000000000000000000000000000000000000000000000000000000081526004016109de9190611e75565b60405180910390fd5b81600490816109f6919061266e565b505f82905082600d9081610a0a9190612795565b508160059081610a1a919061266e565b505f610a2582611238565b90505f610a666040518060400160405280600181526020017f2300000000000000000000000000000000000000000000000000000000000000815250611238565b90505f610a84610a7f838561126590919063ffffffff16565b61127f565b905086600381905550600d600882604051610a9f91906124b2565b90815260200160405180910390209081610ab9919061288b565b506001600782604051610acc91906124b2565b90815260200160405180910390205f6101000a81548160ff021916908315150217905550867f160ed0aaffbef6885155188b91459cb5a97d5daadccf7561d8c46deea6641b50600d60046005604051610b2793929190612a72565b60405180910390a250505050505050565b5f8054906101000a900473ffffffffffffffffffffffffffffffffffffffff1673ffffffffffffffffffffffffffffffffffffffff163373ffffffffffffffffffffffffffffffffffffffff1614610bc5576040517f08c379a0000000000000000000000000000000000000000000000000000000008152600401610bbc90612b06565b60405180910390fd5b565b610bd3825f80846112f7565b5050565b5f815103610c11576040517ffe936cb700000000000000000000000000000000000000000000000000000000815260040160405180910390fd5b808260a001819052505050565b60605f610c2c61010061139d565b9050610c766040518060400160405280600c81526020017f636f64654c6f636174696f6e0000000000000000000000000000000000000000815250826113c290919063ffffffff16565b610c9e835f01516002811115610c8f57610c8e612b24565b5b826113ea90919063ffffffff16565b610ce66040518060400160405280600881526020017f6c616e6775616765000000000000000000000000000000000000000000000000815250826113c290919063ffffffff16565b610d0e83604001515f811115610cff57610cfe612b24565b5b826113ea90919063ffffffff16565b610d566040518060400160405280600681526020017f736f757263650000000000000000000000000000000000000000000000000000815250826113c290919063ffffffff16565b610d6d8360600151826113c290919063ffffffff16565b5f8360a00151511115610e2757610dc26040518060400160405280600481526020017f6172677300000000000000000000000000000000000000000000000000000000815250826113c290919063ffffffff16565b610dcb81611439565b5f5b8360a0015151811015610e1c57610e0b8460a001518281518110610df457610df3612b51565b5b6020026020010151836113c290919063ffffffff16565b80610e1590612bab565b9050610dcd565b50610e2681611461565b5b5f8360800151511115610f66575f6002811115610e4757610e46612b24565b5b83602001516002811115610e5e57610e5d612b24565b5b03610e95576040517fa80d31f700000000000000000000000000000000000000000000000000000000815260040160405180910390fd5b610edd6040518060400160405280600f81526020017f736563726574734c6f636174696f6e0000000000000000000000000000000000815250826113c290919063ffffffff16565b610f0683602001516002811115610ef757610ef6612b24565b5b826113ea90919063ffffffff16565b610f4e6040518060400160405280600781526020017f7365637265747300000000000000000000000000000000000000000000000000815250826113c290919063ffffffff16565b610f6583608001518261148990919063ffffffff16565b5b5f8360c0015151111561102057610fbb6040518060400160405280600981526020017f6279746573417267730000000000000000000000000000000000000000000000815250826113c290919063ffffffff16565b610fc481611439565b5f5b8360c0015151811015611015576110048460c001518281518110610fed57610fec612b51565b5b60200260200101518361148990919063ffffffff16565b8061100e90612bab565b9050610fc6565b5061101f81611461565b5b805f01515f0151915050919050565b5f807f000000000000000000000000000000000000000000000000000000000000000073ffffffffffffffffffffffffffffffffffffffff1663461d27628688600188886040518663ffffffff1660e01b8152600401611093959493929190612c3b565b6020604051808303815f875af11580156110af573d5f803e3d5ffd5b505050506040513d601f19601f820116820180604052508101906110d39190612ca7565b9050807f1131472297a800fee664d1d89cfa8f7676ff07189ecc53f80bbb5f4969099db860405160405180910390a280915050949350505050565b3373ffffffffffffffffffffffffffffffffffffffff168173ffffffffffffffffffffffffffffffffffffffff160361117c576040517f08c379a000000000000000000000000000000000000000000000000000000000815260040161117390612d1c565b60405180910390fd5b8060015f6101000a81548173ffffffffffffffffffffffffffffffffffffffff021916908373ffffffffffffffffffffffffffffffffffffffff1602179055508073ffffffffffffffffffffffffffffffffffffffff165f8054906101000a900473ffffffffffffffffffffffffffffffffffffffff1673ffffffffffffffffffffffffffffffffffffffff167fed8889f560326eb138920d842192f0eb3dd22b4f139c87a2c57538e05bae127860405160405180910390a350565b611240611c0e565b5f60208301905060405180604001604052808451815260200182815250915050919050565b61126d611c0e565b6112788383836114b1565b5092915050565b60605f825f015167ffffffffffffffff81111561129f5761129e611cba565b5b6040519080825280601f01601f1916602001820160405280156112d15781602001600182028036833780820191505090505b5090505f6020820190506112ed818560200151865f0151611570565b8192505050919050565b5f815103611331576040517f22ce3edd00000000000000000000000000000000000000000000000000000000815260040160405180910390fd5b82845f0190600281111561134857611347612b24565b5b9081600281111561135c5761135b612b24565b5b815250508184604001905f81111561137757611376612b24565b5b90815f81111561138a57611389612b24565b5b8152505080846060018190525050505050565b6113a5611c26565b6113b2815f01518361161a565b505f816020018181525050919050565b6113cf8260038351611690565b6113e581835f015161183090919063ffffffff16565b505050565b61140b60026005600660ff16901b17835f015161184c90919063ffffffff16565b5061143582826040516020016114219190612d49565b604051602081830303815290604052611489565b5050565b6114448160046118b3565b6001816020018181516114579190612d62565b9150818152505050565b61146c8160076118b3565b60018160200181815161147f9190612d95565b9150818152505050565b6114968260028351611690565b6114ac81835f015161183090919063ffffffff16565b505050565b6114b9611c0e565b5f6114d4855f01518660200151865f015187602001516118d8565b905084602001518360200181815250508460200151816114f49190612d95565b835f018181525050845f0151856020015161150f9190612d62565b8103611523575f855f018181525050611565565b835f0151835f01516115359190612d62565b855f018181516115459190612d95565b91508181525050835f01518161155b9190612d62565b8560200181815250505b829150509392505050565b5b602081106115af578151835260208361158a9190612d62565b92506020826115999190612d62565b91506020816115a89190612d95565b9050611571565b5f7fffffffffffffffffffffffffffffffffffffffffffffffffffffffffffffffff90505f8211156116045760018260206115ea9190612d95565b6101006115f79190612ef7565b6116019190612d95565b90505b8019835116818551168181178652505050505050565b611622611c45565b5f6020836116309190612f6e565b1461165c576020826116429190612f6e565b602061164e9190612d95565b826116599190612d62565b91505b818360200181815250506040518084525f815282810160200181811015611681575f80fd5b80604052505082905092915050565b60178167ffffffffffffffff16116116ca576116c48160058460ff16901b60ff1617845f015161184c90919063ffffffff16565b5061182b565b60ff8167ffffffffffffffff1611611726576116fc601860058460ff16901b17845f015161184c90919063ffffffff16565b506117208167ffffffffffffffff166001855f0151611a179092919063ffffffff16565b5061182a565b61ffff8167ffffffffffffffff161161178357611759601960058460ff16901b17845f015161184c90919063ffffffff16565b5061177d8167ffffffffffffffff166002855f0151611a179092919063ffffffff16565b50611829565b63ffffffff8167ffffffffffffffff16116117e2576117b8601a60058460ff16901b17845f015161184c90919063ffffffff16565b506117dc8167ffffffffffffffff166004855f0151611a179092919063ffffffff16565b50611828565b611802601b60058460ff16901b17845f015161184c90919063ffffffff16565b506118268167ffffffffffffffff166008855f0151611a179092919063ffffffff16565b505b5b5b5b505050565b611838611c45565b61184483838451611aa0565b905092915050565b611854611c45565b5f835f01515190505f60018261186a9190612d62565b90508460200151821061188e5761188d856002836118889190612f9e565b611b7d565b5b845160208382010185815381518311156118a6578282525b5050849250505092915050565b6118d3601f60058360ff16901b17835f015161184c90919063ffffffff16565b505050565b5f808490505f8685116119fe57602085116119a4575f8086111561192d5760018660206119059190612d95565b60086119119190612f9e565b600261191d9190612ef7565b6119279190612d95565b195f1b90505b5f8186511690505f878a8a6119429190612d62565b61194c9190612d95565b90505f8386511690505b8281146119965781861061197d578a8a6119709190612d62565b9650505050505050611a0f565b858061198890612bab565b965050838651169050611956565b859650505050505050611a0f565b5f85852090505f91505b85886119ba9190612d95565b82116119fc575f86842090508082036119d95783945050505050611a0f565b6001846119e69190612d62565b93505081806119f490612bab565b9250506119ae565b505b8686611a0a9190612d62565b925050505b949350505050565b611a1f611c45565b5f845f01515190505f8184611a349190612d62565b90508560200151811115611a5957611a5886600283611a539190612f9e565b611b7d565b5b5f600185610100611a6a9190612ef7565b611a749190612d95565b905086518281018783198251161781528151841115611a91578382525b50508693505050509392505050565b611aa8611c45565b8251821115611ab5575f80fd5b5f845f01515190505f8382611aca9190612d62565b90508560200151811115611aef57611aee86600283611ae99190612f9e565b611b7d565b5b5f8087518051856020830101935080851115611b09578482525b60208901925050505b60208610611b505780518252602082611b2b9190612d62565b9150602081611b3a9190612d62565b9050602086611b499190612d95565b9550611b12565b5f6001876020036101000a0390508019825116818451168181178552505050879450505050509392505050565b5f825f01519050611b8e838361161a565b50611b998382611830565b50505050565b6040518060e001604052805f6002811115611bbd57611bbc612b24565b5b81526020015f6002811115611bd557611bd4612b24565b5b81526020015f80811115611bec57611beb612b24565b5b8152602001606081526020016060815260200160608152602001606081525090565b60405180604001604052805f81526020015f81525090565b6040518060400160405280611c39611c45565b81526020015f81525090565b6040518060400160405280606081526020015f81525090565b5f604051905090565b5f80fd5b5f80fd5b5f819050919050565b611c8181611c6f565b8114611c8b575f80fd5b50565b5f81359050611c9c81611c78565b92915050565b5f80fd5b5f80fd5b5f601f19601f8301169050919050565b7f4e487b71000000000000000000000000000000000000000000000000000000005f52604160045260245ffd5b611cf082611caa565b810181811067ffffffffffffffff82111715611d0f57611d0e611cba565b5b80604052505050565b5f611d21611c5e565b9050611d2d8282611ce7565b919050565b5f67ffffffffffffffff821115611d4c57611d4b611cba565b5b611d5582611caa565b9050602081019050919050565b828183375f83830152505050565b5f611d82611d7d84611d32565b611d18565b905082815260208101848484011115611d9e57611d9d611ca6565b5b611da9848285611d62565b509392505050565b5f82601f830112611dc557611dc4611ca2565b5b8135611dd5848260208601611d70565b91505092915050565b5f805f60608486031215611df557611df4611c67565b5b5f611e0286828701611c8e565b935050602084013567ffffffffffffffff811115611e2357611e22611c6b565b5b611e2f86828701611db1565b925050604084013567ffffffffffffffff811115611e5057611e4f611c6b565b5b611e5c86828701611db1565b9150509250925092565b611e6f81611c6f565b82525050565b5f602082019050611e885f830184611e66565b92915050565b5f67ffffffffffffffff821115611ea857611ea7611cba565b5b611eb182611caa565b9050602081019050919050565b5f611ed0611ecb84611e8e565b611d18565b905082815260208101848484011115611eec57611eeb611ca6565b5b611ef7848285611d62565b509392505050565b5f82601f830112611f1357611f12611ca2565b5b8135611f23848260208601611ebe565b91505092915050565b5f60208284031215611f4157611f40611c67565b5b5f82013567ffffffffffffffff811115611f5e57611f5d611c6b565b5b611f6a84828501611eff565b91505092915050565b5f8115159050919050565b611f8781611f73565b82525050565b5f602082019050611fa05f830184611f7e565b92915050565b5f81519050919050565b5f82825260208201905092915050565b5f5b83811015611fdd578082015181840152602081019050611fc2565b5f8484015250505050565b5f611ff282611fa6565b611ffc8185611fb0565b935061200c818560208601611fc0565b61201581611caa565b840191505092915050565b5f6020820190508181035f8301526120388184611fe8565b905092915050565b5f81519050919050565b5f82825260208201905092915050565b5f61206482612040565b61206e818561204a565b935061207e818560208601611fc0565b61208781611caa565b840191505092915050565b5f6020820190508181035f8301526120aa818461205a565b905092915050565b5f73ffffffffffffffffffffffffffffffffffffffff82169050919050565b5f6120db826120b2565b9050919050565b6120eb816120d1565b82525050565b5f6020820190506121045f8301846120e2565b92915050565b5f67ffffffffffffffff82169050919050565b6121268161210a565b8114612130575f80fd5b50565b5f813590506121418161211d565b92915050565b5f80fd5b5f80fd5b5f8083601f84011261216457612163611ca2565b5b8235905067ffffffffffffffff81111561218157612180612147565b5b60208301915083602082028301111561219d5761219c61214b565b5b9250929050565b5f805f80606085870312156121bc576121bb611c67565b5b5f6121c987828801612133565b945050602085013567ffffffffffffffff8111156121ea576121e9611c6b565b5b6121f68782880161214f565b9350935050604085013567ffffffffffffffff81111561221957612218611c6b565b5b61222587828801611eff565b91505092959194509250565b61223a816120d1565b8114612244575f80fd5b50565b5f8135905061225581612231565b92915050565b5f602082840312156122705761226f611c67565b5b5f61227d84828501612247565b91505092915050565b7f4e487b71000000000000000000000000000000000000000000000000000000005f52602260045260245ffd5b5f60028204905060018216806122ca57607f821691505b6020821081036122dd576122dc612286565b5b50919050565b7f4d7573742062652070726f706f736564206f776e6572000000000000000000005f82015250565b5f612317601683611fb0565b9150612322826122e3565b602082019050919050565b5f6020820190508181035f8301526123448161230b565b9050919050565b7f537472696e6720657863656564732033322062797465730000000000000000005f82015250565b5f61237f601783611fb0565b915061238a8261234b565b602082019050919050565b5f6020820190508181035f8301526123ac81612373565b9050919050565b5f67ffffffffffffffff8211156123cd576123cc611cba565b5b602082029050602081019050919050565b5f6123f06123eb846123b3565b611d18565b905080838252602082019050602084028301858111156124135761241261214b565b5b835b8181101561245a57803567ffffffffffffffff81111561243857612437611ca2565b5b8086016124458982611eff565b85526020850194505050602081019050612415565b5050509392505050565b5f6124703684846123de565b905092915050565b5f81905092915050565b5f61248c82611fa6565b6124968185612478565b93506124a6818560208601611fc0565b80840191505092915050565b5f6124bd8284612482565b915081905092915050565b5f819050815f5260205f209050919050565b5f6020601f8301049050919050565b5f82821b905092915050565b5f600883026125247fffffffffffffffffffffffffffffffffffffffffffffffffffffffffffffffff826124e9565b61252e86836124e9565b95508019841693508086168417925050509392505050565b5f819050919050565b5f819050919050565b5f61257261256d61256884612546565b61254f565b612546565b9050919050565b5f819050919050565b61258b83612558565b61259f61259782612579565b8484546124f5565b825550505050565b5f90565b6125b36125a7565b6125be818484612582565b505050565b5b818110156125e1576125d65f826125ab565b6001810190506125c4565b5050565b601f821115612626576125f7816124c8565b612600846124da565b8101602085101561260f578190505b61262361261b856124da565b8301826125c3565b50505b505050565b5f82821c905092915050565b5f6126465f198460080261262b565b1980831691505092915050565b5f61265e8383612637565b9150826002028217905092915050565b61267782612040565b67ffffffffffffffff8111156126905761268f611cba565b5b61269a82546122b3565b6126a58282856125e5565b5f60209050601f8311600181146126d6575f84156126c4578287015190505b6126ce8582612653565b865550612735565b601f1984166126e4866124c8565b5f5b8281101561270b578489015182556001820191506020850194506020810190506126e6565b868310156127285784890151612724601f891682612637565b8355505b6001600288020188555050505b505050505050565b5f819050815f5260205f209050919050565b601f821115612790576127618161273d565b61276a846124da565b81016020851015612779578190505b61278d612785856124da565b8301826125c3565b50505b505050565b61279e82611fa6565b67ffffffffffffffff8111156127b7576127b6611cba565b5b6127c182546122b3565b6127cc82828561274f565b5f60209050601f8311600181146127fd575f84156127eb578287015190505b6127f58582612653565b86555061285c565b601f19841661280b8661273d565b5f5b828110156128325784890151825560018201915060208501945060208101905061280d565b8683101561284f578489015161284b601f891682612637565b8355505b6001600288020188555050505b505050505050565b5f81549050612872816122b3565b9050919050565b5f819050815f5260205f209050919050565b81810361289957505061296e565b6128a282612864565b67ffffffffffffffff8111156128bb576128ba611cba565b5b6128c582546122b3565b6128d082828561274f565b5f601f8311600181146128fd575f84156128eb578287015490505b6128f58582612653565b865550612967565b601f19841661290b87612879565b96506129168661273d565b5f5b8281101561293d57848901548255600182019150600185019450602081019050612918565b8683101561295a5784890154612956601f891682612637565b8355505b6001600288020188555050505b5050505050505b565b5f815461297c816122b3565b6129868186611fb0565b9450600182165f81146129a057600181146129b6576129e8565b60ff1983168652811515602002860193506129e8565b6129bf8561273d565b5f5b838110156129e0578154818901526001820191506020810190506129c1565b808801955050505b50505092915050565b5f81546129fd816122b3565b612a07818661204a565b9450600182165f8114612a215760018114612a3757612a69565b60ff198316865281151560200286019350612a69565b612a40856124c8565b5f5b83811015612a6157815481890152600182019150602081019050612a42565b808801955050505b50505092915050565b5f6060820190508181035f830152612a8a8186612970565b90508181036020830152612a9e81856129f1565b90508181036040830152612ab281846129f1565b9050949350505050565b7f4f6e6c792063616c6c61626c65206279206f776e6572000000000000000000005f82015250565b5f612af0601683611fb0565b9150612afb82612abc565b602082019050919050565b5f6020820190508181035f830152612b1d81612ae4565b9050919050565b7f4e487b71000000000000000000000000000000000000000000000000000000005f52602160045260245ffd5b7f4e487b71000000000000000000000000000000000000000000000000000000005f52603260045260245ffd5b7f4e487b71000000000000000000000000000000000000000000000000000000005f52601160045260245ffd5b5f612bb582612546565b91507fffffffffffffffffffffffffffffffffffffffffffffffffffffffffffffffff8203612be757612be6612b7e565b5b600182019050919050565b612bfb8161210a565b82525050565b5f61ffff82169050919050565b612c1781612c01565b82525050565b5f63ffffffff82169050919050565b612c3581612c1d565b82525050565b5f60a082019050612c4e5f830188612bf2565b8181036020830152612c60818761205a565b9050612c6f6040830186612c0e565b612c7c6060830185612c2c565b612c896080830184611e66565b9695505050505050565b5f81519050612ca181611c78565b92915050565b5f60208284031215612cbc57612cbb611c67565b5b5f612cc984828501612c93565b91505092915050565b7f43616e6e6f74207472616e7366657220746f2073656c660000000000000000005f82015250565b5f612d06601783611fb0565b9150612d1182612cd2565b602082019050919050565b5f6020820190508181035f830152612d3381612cfa565b9050919050565b612d4381612546565b82525050565b5f602082019050612d5c5f830184612d3a565b92915050565b5f612d6c82612546565b9150612d7783612546565b9250828201905080821115612d8f57612d8e612b7e565b5b92915050565b5f612d9f82612546565b9150612daa83612546565b9250828203905081811115612dc257612dc1612b7e565b5b92915050565b5f8160011c9050919050565b5f808291508390505b6001851115612e1d57808604811115612df957612df8612b7e565b5b6001851615612e085780820291505b8081029050612e1685612dc8565b9450612ddd565b94509492505050565b5f82612e355760019050612ef0565b81612e42575f9050612ef0565b8160018114612e585760028114612e6257612e91565b6001915050612ef0565b60ff841115612e7457612e73612b7e565b5b8360020a915084821115612e8b57612e8a612b7e565b5b50612ef0565b5060208310610133831016604e8410600b8410161715612ec65782820a905083811115612ec157612ec0612b7e565b5b612ef0565b612ed38484846001612dd4565b92509050818404811115612eea57612ee9612b7e565b5b81810290505b9392505050565b5f612f0182612546565b9150612f0c83612546565b9250612f397fffffffffffffffffffffffffffffffffffffffffffffffffffffffffffffffff8484612e26565b905092915050565b7f4e487b71000000000000000000000000000000000000000000000000000000005f52601260045260245ffd5b5f612f7882612546565b9150612f8383612546565b925082612f9357612f92612f41565b5b828206905092915050565b5f612fa882612546565b9150612fb383612546565b9250828202612fc181612546565b91508282048414831517612fd857612fd7612b7e565b5b509291505056fea26469706673582212206d4000a15a4cf7a5333dfa28eceb3e97895e5b4bfc7a63dbdb195ab779d1108964736f6c63430008140033636f6e7374206275636b65744e616d65203d20617267735b305d3b636f6e737420696d6167654e616d65203d20617267735b315d3b636f6e7374206170706c69636174696f6e4e6f203d20617267735b325d3b636f6e73742075726c203d202768747470733a2f2f61366d366d33706a646d6a36756a336b7136797966677a3537713077736c6b662e6c616d6264612d75726c2e61702d736f757468656173742d312e6f6e2e6177732f273b636f6e737420706172616d203d207b276170706c69636174696f6e4e6f273a206170706c69636174696f6e4e6f202c2753334f626a656374273a207b274275636b6574273a206275636b65744e616d652c274e616d65273a20696d6167654e616d657d7d3b636f6e737420636865636b4365727452657175657374203d2046756e6374696f6e732e6d616b654874747052657175657374287b75726c3a2075726c2c6d6574686f643a2027504f5354272c686561646572733a207b27636f6e74656e742d54797065273a20276170706c69636174696f6e2f6a736f6e272c7d2c646174613a20706172616d2c7d293b636f6e737420636865636b43657274526573706f6e7365203d20617761697420636865636b43657274526571756573743b69662028636865636b43657274526573706f6e73652e6572726f7229207b7468726f77204572726f72286052657175657374206661696c65643a60202b206275636b65744e616d65202b273b27202b20696d6167654e616d65202b273b27202b20636865636b43657274526573706f6e73652e6d657373616765293b7d636f6e73742072657144617461203d20636865636b43657274526573706f6e73652e646174613b636f6e737420636869526573756c743d20726571446174612e636869526573756c742e7472696d28293b636f6e737420656e67526573756c743d20726571446174612e656e67526573756c742e7472696d28293b636f6e7374206170706c4e6f3d20726571446174612e6170706c69636174696f6e4e6f2e7472696d28293b636f6e737420726573756c743d206170706c4e6f202b2723272b20636869526573756c74202b272327202b20656e67526573756c74202b2723272b202027504153534544273b72657475726e2046756e6374696f6e732e656e636f6465537472696e6728726573756c74293b",
  "immutableReferences": {
    "17": [
      {
        "length": 32,
        "start": 706
      },
      {
        "length": 32,
        "start": 4147
      }
    ]
  },
  "source": "// SPDX-License-Identifier: MIT\npragma solidity ^0.8.19;\n\nimport {FunctionsClient} from \"@chainlink/contracts/src/v0.8/functions/dev/v1_0_0/FunctionsClient.sol\";\nimport {ConfirmedOwner} from \"@chainlink/contracts/src/v0.8/shared/access/ConfirmedOwner.sol\";\nimport {FunctionsRequest} from \"@chainlink/contracts/src/v0.8/functions/dev/v1_0_0/libraries/FunctionsRequest.sol\";\nimport \"./strings.sol\";\n//https://hackernoon.com/how-to-use-anus-quantum-random-number-generator-in-your-smart-contracts\ncontract AdmissionProcess is FunctionsClient, ConfirmedOwner {\n    using FunctionsRequest for FunctionsRequest.Request;\n    using strings for *;\n    // State variables to store the last request ID, response, and error\n    bytes32 public s_lastRequestId;\n    bytes32 public s_lastFullfilledRequestId;\n    bytes public s_lastResponse;\n    bytes public s_lastError;\n    bytes32 public s_temp_appno;\n    mapping(string => bool) public fulfilled;\n    mapping(string => string) public checkResults;\n    uint32 private s_recordCounter;\n\n\n    // Custom error type\n    error UnexpectedRequestID(bytes32 requestId);\n\n    // Event to log responses\n    event Response(\n        bytes32 indexed requestId,\n        string character,\n        bytes response,\n        bytes err\n    );\n\n    // Router address - Hardcoded \n    // Check to get the router address for your supported network https://docs.chain.link/chainlink-functions/supported-networks\n    //address router = 0xb83E47C2bC239B3bf370bc41e1459A34b41238D0; //sepoia\n    address router = 0x6E2dc0F9DB014aE19888F539E59285D2Ea04244C; //mumbai\n    // JavaScript source code\n    string source =\n    \"const bucketName = args[0];\"\n    \"const imageName = args[1];\"\n    \"const applicationNo = args[2];\"\n    \"const url = 'https://a6m6m3pjdmj6uj3kq6yyfgz57q0wslkf.lambda-url.ap-southeast-1.on.aws/';\"\n    \"const param = {'applicationNo': applicationNo ,'S3Object': {'Bucket': bucketName,'Name': imageName}};\"\n    \"const checkCertRequest = Functions.makeHttpRequest({\"\n    \"url: url,\"\n    \"method: 'POST',\"\n    \"headers: {'content-Type': 'application/json',},\"\n    \"data: param,});\"\n    \"const checkCertResponse = await checkCertRequest;\"\n    \"if (checkCertResponse.error) {\"\n    \"throw Error(`Request failed:` + bucketName +';' + imageName +';' + checkCertResponse.message);\"\n    \"}\"\n    \"const reqData = checkCertResponse.data;\"\n    \"const chiResult= reqData.chiResult.trim();\"\n    \"const engResult= reqData.engResult.trim();\"\n    \"const applNo= reqData.applicationNo.trim();\"\n    \"const result= applNo +'#'+ chiResult +'#' + engResult +'#'+  'PASSED';\"\n    \"return Functions.encodeString(result);\";\n\n    //Callback gas limit\n    uint32 gasLimit = 300000;\n\n    // donID - Hardcoded for Mumbai\n    // Check to get the donID for your supported network https://docs.chain.link/chainlink-functions/supported-networks\n   //bytes32 donID = 0x66756e2d657468657265756d2d7365706f6c69612d3100000000000000000000; //sepolia\n    bytes32 donID = 0x66756e2d706f6c79676f6e2d6d756d6261692d31000000000000000000000000; //Mumbai\n    // State variable to store the returned checkresult information\n    string public s_checkresult;\n\n    /**\n     * @notice Initializes the contract with the Chainlink router address and sets the contract owner\n     */\n    constructor() FunctionsClient(router) ConfirmedOwner(msg.sender) {\n        // address storageAddress = 0xD352Bc334bfbbcE34b5B44803E72Bf47203a625b;\n        // s_recordCounter =0;\n        // storageContract = AdmissionStorage(storageAddress);\n    }\n\n    /**\n     * @notice Sends an HTTP request for checkresult information\n     * @param subscriptionId The ID for the Chainlink subscription\n     * @param args The arguments to pass to the HTTP request\n     * @return requestId The ID of the request\n     */\n    function sendRequest(\n        uint64 subscriptionId,\n        string[] calldata args,\n        string memory applNo\n    ) external onlyOwner returns (bytes32 requestId) {\n        s_lastRequestId = bytes32(0);\n        FunctionsRequest.Request memory req;\n        req.initializeRequestForInlineJavaScript(source); // Initialize the request with JS code\n        if (args.length > 0) req.setArgs(args); // Set the arguments for the request\n       \n        // Send the request and store the request ID\n        s_lastRequestId = _sendRequest(\n            req.encodeCBOR(),\n            subscriptionId,\n            gasLimit,\n            donID\n        );\n        fulfilled[applNo] = false;\n\n        s_lastFullfilledRequestId = bytes32(0);\n        return s_lastRequestId;\n    }\n\n    /**\n     * @notice Callback function for fulfilling a request\n     * @param requestId The ID of the request to fulfill\n     * @param response The HTTP response data\n     * @param err Any errors from the Functions request\n     */\n    function fulfillRequest(\n        bytes32 requestId,\n        bytes memory response,\n        bytes memory err\n    ) internal override {\n        if (s_lastRequestId != requestId) {\n            revert UnexpectedRequestID(requestId); // Check if request IDs match\n        }\n        // Update the contract's state variables with the response and any errors\n        s_lastResponse = response;\n        string memory temp = string(response);\n        s_checkresult = string(response);\n        s_lastError = err;\n        //perform checing of program requirement\n        strings.slice memory s = temp.toSlice();\n        strings.slice memory delim = \"#\".toSlice();\n        string memory appNo = s.split(delim).toString();\n        // string memory chiResult= string.concat(\"HKDSE Chinese Lang. Result is:\",s.split(delim).toString());\n        // string memory engResult= string.concat(\". HKDSE English Lang. Result is:\",s.split(delim).toString());\n        // string memory applNo= string.concat(\". Application No:\",s.toString());\n        //   string memory interimresult = string.concat(s.split(delim).toString(),s.toString());\n        // string memory interimresult = string.concat(chiResult,engResult);\n        // string memory interimresult2 = string.concat(interimresult,applNo);\n        // s_checkresult = string.concat(interimresult2,\". You fuilfill the program requirement !\");        \n        s_lastFullfilledRequestId = requestId;\n        checkResults[appNo] = s_checkresult;\n        // s_temp_appno = stringToBytes32(applNo);\n        fulfilled[appNo] = true;\n        //s_recordCounter ++;\n        //storageIndex[requestId] = s_recordCounter;\n        // fullFilledResult[requestId] = s_checkresult;\n        emit Response(requestId, s_checkresult, s_lastResponse, s_lastError);\n    }\n    function stringToBytes32(string memory str) public pure returns (bytes32) {\n        bytes memory strBytes = bytes(str);\n        require(strBytes.length <= 32, \"String exceeds 32 bytes\");\n\n        bytes32 result;\n        assembly {\n            // Store the string bytes in memory\n            let memPtr := add(strBytes, 32)\n            // Convert the bytes to bytes32 and store the result\n            result := mload(memPtr)\n        }\n\n        return result;\n    }\n   \n \n\n}\n",
  "sourcePath": "/Users/boris/development/HKIT_Project_contract/contracts/AdmissionProcess.sol",
  "compiler": {
    "name": "solc",
    "version": "0.8.20+commit.a1b79de6.Emscripten.clang"
  },
  "schemaVersion": "3.4.16",
  "updatedAt": "2024-03-17T02:36:09.100Z",
  "networkType": "ethereum",
  "devdoc": {
    "kind": "dev",
    "methods": {
      "handleOracleFulfillment(bytes32,bytes,bytes)": {
        "details": "Either response or error parameter will be set, but never both.",
        "params": {
          "err": "Aggregated error either from the request's source code or from the execution pipeline.",
          "requestId": "The requestId returned by FunctionsClient.sendRequest().",
          "response": "Aggregated response from the request's source code."
        }
      },
      "sendRequest(uint64,string[],string)": {
        "params": {
          "args": "The arguments to pass to the HTTP request",
          "subscriptionId": "The ID for the Chainlink subscription"
        },
        "returns": {
          "requestId": "The ID of the request"
        }
      }
    },
    "version": 1
  },
  "userdoc": {
    "kind": "user",
    "methods": {
      "acceptOwnership()": {
        "notice": "Allows an ownership transfer to be completed by the recipient."
      },
      "constructor": {
        "notice": "Initializes the contract with the Chainlink router address and sets the contract owner"
      },
      "handleOracleFulfillment(bytes32,bytes,bytes)": {
        "notice": "Chainlink Functions response handler called by the Functions Router during fullilment from the designated transmitter node in an OCR round."
      },
      "owner()": {
        "notice": "Get the current owner"
      },
      "sendRequest(uint64,string[],string)": {
        "notice": "Sends an HTTP request for checkresult information"
      },
      "transferOwnership(address)": {
        "notice": "Allows an owner to begin transferring ownership to a new address, pending."
      }
    },
    "version": 1
  }
}