{
  "contractName": "FunctionsRequest",
  "abi": [
    {
      "inputs": [],
      "name": "EmptyArgs",
      "type": "error"
    },
    {
      "inputs": [],
      "name": "EmptySecrets",
      "type": "error"
    },
    {
      "inputs": [],
      "name": "EmptySource",
      "type": "error"
    },
    {
      "inputs": [],
      "name": "NoInlineSecrets",
      "type": "error"
    },
    {
      "inputs": [],
      "name": "REQUEST_DATA_VERSION",
      "outputs": [
        {
          "internalType": "uint16",
          "name": "",
          "type": "uint16"
        }
      ],
      "stateMutability": "view",
      "type": "function"
    }
  ],
  "bytecode": "0x60bc61004d600b8282823980515f1a607314610041577f4e487b71000000000000000000000000000000000000000000000000000000005f525f60045260245ffd5b305f52607381538281f3fe73000000000000000000000000000000000000000030146080604052600436106032575f3560e01c80635d641dfc146036575b5f80fd5b603c6050565b60405160479190606f565b60405180910390f35b600181565b5f61ffff82169050919050565b6069816055565b82525050565b5f60208201905060805f8301846062565b9291505056fea264697066735822122097de934f65ab2454f3db8cdf1c380d28a5147646bbb3cf375a760fb692e3fc5164736f6c63430008140033",
  "immutableReferences": {},
  "source": "// SPDX-License-Identifier: MIT\npragma solidity ^0.8.19;\n\nimport {CBOR} from \"../../../../vendor/solidity-cborutils/v2.0.0/CBOR.sol\";\n\n/// @title Library for encoding the input data of a Functions request into CBOR\nlibrary FunctionsRequest {\n  using CBOR for CBOR.CBORBuffer;\n\n  uint16 public constant REQUEST_DATA_VERSION = 1;\n  uint256 internal constant DEFAULT_BUFFER_SIZE = 256;\n\n  enum Location {\n    Inline, // Provided within the Request\n    Remote, // Hosted through remote location that can be accessed through a provided URL\n    DONHosted // Hosted on the DON's storage\n  }\n\n  enum CodeLanguage {\n    JavaScript\n    // In future version we may add other languages\n  }\n\n  struct Request {\n    Location codeLocation; // ════════════╸ The location of the source code that will be executed on each node in the DON\n    Location secretsLocation; // ═════════╸ The location of secrets that will be passed into the source code. *Only Remote secrets are supported\n    CodeLanguage language; // ════════════╸ The coding language that the source code is written in\n    string source; // ════════════════════╸ Raw source code for Request.codeLocation of Location.Inline, URL for Request.codeLocation of Location.Remote, or slot decimal number for Request.codeLocation of Location.DONHosted\n    bytes encryptedSecretsReference; // ══╸ Encrypted URLs for Request.secretsLocation of Location.Remote (use addSecretsReference()), or CBOR encoded slotid+version for Request.secretsLocation of Location.DONHosted (use addDONHostedSecrets())\n    string[] args; // ════════════════════╸ String arguments that will be passed into the source code\n    bytes[] bytesArgs; // ════════════════╸ Bytes arguments that will be passed into the source code\n  }\n\n  error EmptySource();\n  error EmptySecrets();\n  error EmptyArgs();\n  error NoInlineSecrets();\n\n  /// @notice Encodes a Request to CBOR encoded bytes\n  /// @param self The request to encode\n  /// @return CBOR encoded bytes\n  function encodeCBOR(Request memory self) internal pure returns (bytes memory) {\n    CBOR.CBORBuffer memory buffer = CBOR.create(DEFAULT_BUFFER_SIZE);\n\n    buffer.writeString(\"codeLocation\");\n    buffer.writeUInt256(uint256(self.codeLocation));\n\n    buffer.writeString(\"language\");\n    buffer.writeUInt256(uint256(self.language));\n\n    buffer.writeString(\"source\");\n    buffer.writeString(self.source);\n\n    if (self.args.length > 0) {\n      buffer.writeString(\"args\");\n      buffer.startArray();\n      for (uint256 i = 0; i < self.args.length; ++i) {\n        buffer.writeString(self.args[i]);\n      }\n      buffer.endSequence();\n    }\n\n    if (self.encryptedSecretsReference.length > 0) {\n      if (self.secretsLocation == Location.Inline) {\n        revert NoInlineSecrets();\n      }\n      buffer.writeString(\"secretsLocation\");\n      buffer.writeUInt256(uint256(self.secretsLocation));\n      buffer.writeString(\"secrets\");\n      buffer.writeBytes(self.encryptedSecretsReference);\n    }\n\n    if (self.bytesArgs.length > 0) {\n      buffer.writeString(\"bytesArgs\");\n      buffer.startArray();\n      for (uint256 i = 0; i < self.bytesArgs.length; ++i) {\n        buffer.writeBytes(self.bytesArgs[i]);\n      }\n      buffer.endSequence();\n    }\n\n    return buffer.buf.buf;\n  }\n\n  /// @notice Initializes a Chainlink Functions Request\n  /// @dev Sets the codeLocation and code on the request\n  /// @param self The uninitialized request\n  /// @param codeLocation The user provided source code location\n  /// @param language The programming language of the user code\n  /// @param source The user provided source code or a url\n  function initializeRequest(\n    Request memory self,\n    Location codeLocation,\n    CodeLanguage language,\n    string memory source\n  ) internal pure {\n    if (bytes(source).length == 0) revert EmptySource();\n\n    self.codeLocation = codeLocation;\n    self.language = language;\n    self.source = source;\n  }\n\n  /// @notice Initializes a Chainlink Functions Request\n  /// @dev Simplified version of initializeRequest for PoC\n  /// @param self The uninitialized request\n  /// @param javaScriptSource The user provided JS code (must not be empty)\n  function initializeRequestForInlineJavaScript(Request memory self, string memory javaScriptSource) internal pure {\n    initializeRequest(self, Location.Inline, CodeLanguage.JavaScript, javaScriptSource);\n  }\n\n  /// @notice Adds Remote user encrypted secrets to a Request\n  /// @param self The initialized request\n  /// @param encryptedSecretsReference Encrypted comma-separated string of URLs pointing to off-chain secrets\n  function addSecretsReference(Request memory self, bytes memory encryptedSecretsReference) internal pure {\n    if (encryptedSecretsReference.length == 0) revert EmptySecrets();\n\n    self.secretsLocation = Location.Remote;\n    self.encryptedSecretsReference = encryptedSecretsReference;\n  }\n\n  /// @notice Adds DON-hosted secrets reference to a Request\n  /// @param self The initialized request\n  /// @param slotID Slot ID of the user's secrets hosted on DON\n  /// @param version User data version (for the slotID)\n  function addDONHostedSecrets(Request memory self, uint8 slotID, uint64 version) internal pure {\n    CBOR.CBORBuffer memory buffer = CBOR.create(DEFAULT_BUFFER_SIZE);\n\n    buffer.writeString(\"slotID\");\n    buffer.writeUInt64(slotID);\n    buffer.writeString(\"version\");\n    buffer.writeUInt64(version);\n\n    self.secretsLocation = Location.DONHosted;\n    self.encryptedSecretsReference = buffer.buf.buf;\n  }\n\n  /// @notice Sets args for the user run function\n  /// @param self The initialized request\n  /// @param args The array of string args (must not be empty)\n  function setArgs(Request memory self, string[] memory args) internal pure {\n    if (args.length == 0) revert EmptyArgs();\n\n    self.args = args;\n  }\n\n  /// @notice Sets bytes args for the user run function\n  /// @param self The initialized request\n  /// @param args The array of bytes args (must not be empty)\n  function setBytesArgs(Request memory self, bytes[] memory args) internal pure {\n    if (args.length == 0) revert EmptyArgs();\n\n    self.bytesArgs = args;\n  }\n}\n",
  "sourcePath": "@chainlink\\contracts\\src\\v0.8\\functions\\dev\\v1_0_0\\libraries\\FunctionsRequest.sol",
  "compiler": {
    "name": "solc",
    "version": "0.8.20+commit.a1b79de6.Emscripten.clang"
  },
  "schemaVersion": "3.4.16",
  "updatedAt": "2024-04-14T03:17:03.519Z",
  "devdoc": {
    "kind": "dev",
    "methods": {},
    "title": "Library for encoding the input data of a Functions request into CBOR",
    "version": 1
  },
  "userdoc": {
    "kind": "user",
    "methods": {},
    "version": 1
  }
}