{
  "contractName": "Scolaire",
  "abi": [
    {
      "inputs": [
        {
          "internalType": "address",
          "name": "initialOwner",
          "type": "address"
        }
      ],
      "stateMutability": "nonpayable",
      "type": "constructor"
    },
    {
      "inputs": [],
      "name": "ERC721EnumerableForbiddenBatchMint",
      "type": "error"
    },
    {
      "inputs": [
        {
          "internalType": "address",
          "name": "sender",
          "type": "address"
        },
        {
          "internalType": "uint256",
          "name": "tokenId",
          "type": "uint256"
        },
        {
          "internalType": "address",
          "name": "owner",
          "type": "address"
        }
      ],
      "name": "ERC721IncorrectOwner",
      "type": "error"
    },
    {
      "inputs": [
        {
          "internalType": "address",
          "name": "operator",
          "type": "address"
        },
        {
          "internalType": "uint256",
          "name": "tokenId",
          "type": "uint256"
        }
      ],
      "name": "ERC721InsufficientApproval",
      "type": "error"
    },
    {
      "inputs": [
        {
          "internalType": "address",
          "name": "approver",
          "type": "address"
        }
      ],
      "name": "ERC721InvalidApprover",
      "type": "error"
    },
    {
      "inputs": [
        {
          "internalType": "address",
          "name": "operator",
          "type": "address"
        }
      ],
      "name": "ERC721InvalidOperator",
      "type": "error"
    },
    {
      "inputs": [
        {
          "internalType": "address",
          "name": "owner",
          "type": "address"
        }
      ],
      "name": "ERC721InvalidOwner",
      "type": "error"
    },
    {
      "inputs": [
        {
          "internalType": "address",
          "name": "receiver",
          "type": "address"
        }
      ],
      "name": "ERC721InvalidReceiver",
      "type": "error"
    },
    {
      "inputs": [
        {
          "internalType": "address",
          "name": "sender",
          "type": "address"
        }
      ],
      "name": "ERC721InvalidSender",
      "type": "error"
    },
    {
      "inputs": [
        {
          "internalType": "uint256",
          "name": "tokenId",
          "type": "uint256"
        }
      ],
      "name": "ERC721NonexistentToken",
      "type": "error"
    },
    {
      "inputs": [
        {
          "internalType": "address",
          "name": "owner",
          "type": "address"
        },
        {
          "internalType": "uint256",
          "name": "index",
          "type": "uint256"
        }
      ],
      "name": "ERC721OutOfBoundsIndex",
      "type": "error"
    },
    {
      "inputs": [
        {
          "internalType": "address",
          "name": "owner",
          "type": "address"
        }
      ],
      "name": "OwnableInvalidOwner",
      "type": "error"
    },
    {
      "inputs": [
        {
          "internalType": "address",
          "name": "account",
          "type": "address"
        }
      ],
      "name": "OwnableUnauthorizedAccount",
      "type": "error"
    },
    {
      "anonymous": false,
      "inputs": [
        {
          "indexed": true,
          "internalType": "address",
          "name": "owner",
          "type": "address"
        },
        {
          "indexed": true,
          "internalType": "address",
          "name": "approved",
          "type": "address"
        },
        {
          "indexed": true,
          "internalType": "uint256",
          "name": "tokenId",
          "type": "uint256"
        }
      ],
      "name": "Approval",
      "type": "event"
    },
    {
      "anonymous": false,
      "inputs": [
        {
          "indexed": true,
          "internalType": "address",
          "name": "owner",
          "type": "address"
        },
        {
          "indexed": true,
          "internalType": "address",
          "name": "operator",
          "type": "address"
        },
        {
          "indexed": false,
          "internalType": "bool",
          "name": "approved",
          "type": "bool"
        }
      ],
      "name": "ApprovalForAll",
      "type": "event"
    },
    {
      "anonymous": false,
      "inputs": [
        {
          "indexed": false,
          "internalType": "uint256",
          "name": "_fromTokenId",
          "type": "uint256"
        },
        {
          "indexed": false,
          "internalType": "uint256",
          "name": "_toTokenId",
          "type": "uint256"
        }
      ],
      "name": "BatchMetadataUpdate",
      "type": "event"
    },
    {
      "anonymous": false,
      "inputs": [
        {
          "indexed": false,
          "internalType": "uint256",
          "name": "_tokenId",
          "type": "uint256"
        }
      ],
      "name": "MetadataUpdate",
      "type": "event"
    },
    {
      "anonymous": false,
      "inputs": [
        {
          "indexed": true,
          "internalType": "address",
          "name": "previousOwner",
          "type": "address"
        },
        {
          "indexed": true,
          "internalType": "address",
          "name": "newOwner",
          "type": "address"
        }
      ],
      "name": "OwnershipTransferred",
      "type": "event"
    },
    {
      "anonymous": false,
      "inputs": [
        {
          "indexed": false,
          "internalType": "uint256",
          "name": "tokenID",
          "type": "uint256"
        },
        {
          "indexed": false,
          "internalType": "string",
          "name": "tokenURI",
          "type": "string"
        }
      ],
      "name": "SafeMint",
      "type": "event"
    },
    {
      "anonymous": false,
      "inputs": [
        {
          "indexed": true,
          "internalType": "address",
          "name": "from",
          "type": "address"
        },
        {
          "indexed": true,
          "internalType": "address",
          "name": "to",
          "type": "address"
        },
        {
          "indexed": true,
          "internalType": "uint256",
          "name": "tokenId",
          "type": "uint256"
        }
      ],
      "name": "Transfer",
      "type": "event"
    },
    {
      "inputs": [
        {
          "internalType": "address",
          "name": "to",
          "type": "address"
        },
        {
          "internalType": "uint256",
          "name": "tokenId",
          "type": "uint256"
        }
      ],
      "name": "approve",
      "outputs": [],
      "stateMutability": "nonpayable",
      "type": "function"
    },
    {
      "inputs": [
        {
          "internalType": "address",
          "name": "owner",
          "type": "address"
        }
      ],
      "name": "balanceOf",
      "outputs": [
        {
          "internalType": "uint256",
          "name": "",
          "type": "uint256"
        }
      ],
      "stateMutability": "view",
      "type": "function",
      "constant": true
    },
    {
      "inputs": [
        {
          "internalType": "uint256",
          "name": "tokenId",
          "type": "uint256"
        }
      ],
      "name": "burn",
      "outputs": [],
      "stateMutability": "nonpayable",
      "type": "function"
    },
    {
      "inputs": [
        {
          "internalType": "uint256",
          "name": "tokenId",
          "type": "uint256"
        }
      ],
      "name": "getApproved",
      "outputs": [
        {
          "internalType": "address",
          "name": "",
          "type": "address"
        }
      ],
      "stateMutability": "view",
      "type": "function",
      "constant": true
    },
    {
      "inputs": [
        {
          "internalType": "address",
          "name": "owner",
          "type": "address"
        },
        {
          "internalType": "address",
          "name": "operator",
          "type": "address"
        }
      ],
      "name": "isApprovedForAll",
      "outputs": [
        {
          "internalType": "bool",
          "name": "",
          "type": "bool"
        }
      ],
      "stateMutability": "view",
      "type": "function",
      "constant": true
    },
    {
      "inputs": [],
      "name": "name",
      "outputs": [
        {
          "internalType": "string",
          "name": "",
          "type": "string"
        }
      ],
      "stateMutability": "view",
      "type": "function",
      "constant": true
    },
    {
      "inputs": [],
      "name": "owner",
      "outputs": [
        {
          "internalType": "address",
          "name": "",
          "type": "address"
        }
      ],
      "stateMutability": "view",
      "type": "function",
      "constant": true
    },
    {
      "inputs": [
        {
          "internalType": "uint256",
          "name": "tokenId",
          "type": "uint256"
        }
      ],
      "name": "ownerOf",
      "outputs": [
        {
          "internalType": "address",
          "name": "",
          "type": "address"
        }
      ],
      "stateMutability": "view",
      "type": "function",
      "constant": true
    },
    {
      "inputs": [],
      "name": "renounceOwnership",
      "outputs": [],
      "stateMutability": "nonpayable",
      "type": "function"
    },
    {
      "inputs": [
        {
          "internalType": "address",
          "name": "from",
          "type": "address"
        },
        {
          "internalType": "address",
          "name": "to",
          "type": "address"
        },
        {
          "internalType": "uint256",
          "name": "tokenId",
          "type": "uint256"
        }
      ],
      "name": "safeTransferFrom",
      "outputs": [],
      "stateMutability": "nonpayable",
      "type": "function"
    },
    {
      "inputs": [
        {
          "internalType": "address",
          "name": "from",
          "type": "address"
        },
        {
          "internalType": "address",
          "name": "to",
          "type": "address"
        },
        {
          "internalType": "uint256",
          "name": "tokenId",
          "type": "uint256"
        },
        {
          "internalType": "bytes",
          "name": "data",
          "type": "bytes"
        }
      ],
      "name": "safeTransferFrom",
      "outputs": [],
      "stateMutability": "nonpayable",
      "type": "function"
    },
    {
      "inputs": [
        {
          "internalType": "address",
          "name": "operator",
          "type": "address"
        },
        {
          "internalType": "bool",
          "name": "approved",
          "type": "bool"
        }
      ],
      "name": "setApprovalForAll",
      "outputs": [],
      "stateMutability": "nonpayable",
      "type": "function"
    },
    {
      "inputs": [],
      "name": "symbol",
      "outputs": [
        {
          "internalType": "string",
          "name": "",
          "type": "string"
        }
      ],
      "stateMutability": "view",
      "type": "function",
      "constant": true
    },
    {
      "inputs": [
        {
          "internalType": "uint256",
          "name": "",
          "type": "uint256"
        }
      ],
      "name": "tokenAppNoMapping",
      "outputs": [
        {
          "internalType": "string",
          "name": "",
          "type": "string"
        }
      ],
      "stateMutability": "view",
      "type": "function",
      "constant": true
    },
    {
      "inputs": [
        {
          "internalType": "uint256",
          "name": "index",
          "type": "uint256"
        }
      ],
      "name": "tokenByIndex",
      "outputs": [
        {
          "internalType": "uint256",
          "name": "",
          "type": "uint256"
        }
      ],
      "stateMutability": "view",
      "type": "function",
      "constant": true
    },
    {
      "inputs": [
        {
          "internalType": "address",
          "name": "owner",
          "type": "address"
        },
        {
          "internalType": "uint256",
          "name": "index",
          "type": "uint256"
        }
      ],
      "name": "tokenOfOwnerByIndex",
      "outputs": [
        {
          "internalType": "uint256",
          "name": "",
          "type": "uint256"
        }
      ],
      "stateMutability": "view",
      "type": "function",
      "constant": true
    },
    {
      "inputs": [],
      "name": "totalSupply",
      "outputs": [
        {
          "internalType": "uint256",
          "name": "",
          "type": "uint256"
        }
      ],
      "stateMutability": "view",
      "type": "function",
      "constant": true
    },
    {
      "inputs": [
        {
          "internalType": "address",
          "name": "from",
          "type": "address"
        },
        {
          "internalType": "address",
          "name": "to",
          "type": "address"
        },
        {
          "internalType": "uint256",
          "name": "tokenId",
          "type": "uint256"
        }
      ],
      "name": "transferFrom",
      "outputs": [],
      "stateMutability": "nonpayable",
      "type": "function"
    },
    {
      "inputs": [
        {
          "internalType": "address",
          "name": "newOwner",
          "type": "address"
        }
      ],
      "name": "transferOwnership",
      "outputs": [],
      "stateMutability": "nonpayable",
      "type": "function"
    },
    {
      "inputs": [
        {
          "internalType": "uint256",
          "name": "value",
          "type": "uint256"
        }
      ],
      "name": "uintToString",
      "outputs": [
        {
          "internalType": "string",
          "name": "",
          "type": "string"
        }
      ],
      "stateMutability": "pure",
      "type": "function",
      "constant": true
    },
    {
      "inputs": [
        {
          "internalType": "address",
          "name": "to",
          "type": "address"
        },
        {
          "internalType": "string",
          "name": "applNo",
          "type": "string"
        }
      ],
      "name": "safeMint",
      "outputs": [],
      "stateMutability": "nonpayable",
      "type": "function"
    },
    {
      "inputs": [
        {
          "internalType": "uint256",
          "name": "tokenId",
          "type": "uint256"
        }
      ],
      "name": "tokenURI",
      "outputs": [
        {
          "internalType": "string",
          "name": "",
          "type": "string"
        }
      ],
      "stateMutability": "view",
      "type": "function",
      "constant": true
    },
    {
      "inputs": [
        {
          "internalType": "bytes4",
          "name": "interfaceId",
          "type": "bytes4"
        }
      ],
      "name": "supportsInterface",
      "outputs": [
        {
          "internalType": "bool",
          "name": "",
          "type": "bool"
        }
      ],
      "stateMutability": "view",
      "type": "function",
      "constant": true
    }
  ],
  "bytecode": "0x608060405234801562000010575f80fd5b50604051620035bd380380620035bd83398181016040528101906200003691906200027c565b806040518060400160405280600881526020017f53636f6c616972650000000000000000000000000000000000000000000000008152506040518060400160405280600481526020017f53434f4c00000000000000000000000000000000000000000000000000000000815250815f9081620000b3919062000510565b508060019081620000c5919062000510565b5050505f73ffffffffffffffffffffffffffffffffffffffff168173ffffffffffffffffffffffffffffffffffffffff16036200013b575f6040517f1e4fbdf700000000000000000000000000000000000000000000000000000000815260040162000132919062000605565b60405180910390fd5b6200014c816200015460201b60201c565b505062000620565b5f600b5f9054906101000a900473ffffffffffffffffffffffffffffffffffffffff16905081600b5f6101000a81548173ffffffffffffffffffffffffffffffffffffffff021916908373ffffffffffffffffffffffffffffffffffffffff1602179055508173ffffffffffffffffffffffffffffffffffffffff168173ffffffffffffffffffffffffffffffffffffffff167f8be0079c531659141344cd1fd0a4f28419497f9722a3daafe3b4186f6b6457e060405160405180910390a35050565b5f80fd5b5f73ffffffffffffffffffffffffffffffffffffffff82169050919050565b5f62000246826200021b565b9050919050565b62000258816200023a565b811462000263575f80fd5b50565b5f8151905062000276816200024d565b92915050565b5f6020828403121562000294576200029362000217565b5b5f620002a38482850162000266565b91505092915050565b5f81519050919050565b7f4e487b71000000000000000000000000000000000000000000000000000000005f52604160045260245ffd5b7f4e487b71000000000000000000000000000000000000000000000000000000005f52602260045260245ffd5b5f60028204905060018216806200032857607f821691505b6020821081036200033e576200033d620002e3565b5b50919050565b5f819050815f5260205f209050919050565b5f6020601f8301049050919050565b5f82821b905092915050565b5f60088302620003a27fffffffffffffffffffffffffffffffffffffffffffffffffffffffffffffffff8262000365565b620003ae868362000365565b95508019841693508086168417925050509392505050565b5f819050919050565b5f819050919050565b5f620003f8620003f2620003ec84620003c6565b620003cf565b620003c6565b9050919050565b5f819050919050565b6200041383620003d8565b6200042b6200042282620003ff565b84845462000371565b825550505050565b5f90565b6200044162000433565b6200044e81848462000408565b505050565b5b818110156200047557620004695f8262000437565b60018101905062000454565b5050565b601f821115620004c4576200048e8162000344565b620004998462000356565b81016020851015620004a9578190505b620004c1620004b88562000356565b83018262000453565b50505b505050565b5f82821c905092915050565b5f620004e65f1984600802620004c9565b1980831691505092915050565b5f620005008383620004d5565b9150826002028217905092915050565b6200051b82620002ac565b67ffffffffffffffff811115620005375762000536620002b6565b5b62000543825462000310565b6200055082828562000479565b5f60209050601f83116001811462000586575f841562000571578287015190505b6200057d8582620004f3565b865550620005ec565b601f198416620005968662000344565b5f5b82811015620005bf5784890151825560018201915060208501945060208101905062000598565b86831015620005df5784890151620005db601f891682620004d5565b8355505b6001600288020188555050505b505050505050565b620005ff816200023a565b82525050565b5f6020820190506200061a5f830184620005f4565b92915050565b612f8f806200062e5f395ff3fe608060405234801561000f575f80fd5b506004361061014b575f3560e01c806370a08231116100c1578063b88d4fde1161007a578063b88d4fde146103ad578063c87b56dd146103c9578063d204c45e146103f9578063e939567914610415578063e985e9c514610445578063f2fde38b146104755761014b565b806370a08231146102eb578063715018a61461031b57806376144f87146103255780638da5cb5b1461035557806395d89b4114610373578063a22cb465146103915761014b565b806323b872dd1161011357806323b872dd146102075780632f745c591461022357806342842e0e1461025357806342966c681461026f5780634f6ccce71461028b5780636352211e146102bb5761014b565b806301ffc9a71461014f57806306fdde031461017f578063081812fc1461019d578063095ea7b3146101cd57806318160ddd146101e9575b5f80fd5b610169600480360381019061016491906122ce565b610491565b6040516101769190612313565b60405180910390f35b6101876104a2565b60405161019491906123b6565b60405180910390f35b6101b760048036038101906101b29190612409565b610531565b6040516101c49190612473565b60405180910390f35b6101e760048036038101906101e291906124b6565b61054c565b005b6101f1610562565b6040516101fe9190612503565b60405180910390f35b610221600480360381019061021c919061251c565b61056e565b005b61023d600480360381019061023891906124b6565b61066d565b60405161024a9190612503565b60405180910390f35b61026d6004803603810190610268919061251c565b610711565b005b61028960048036038101906102849190612409565b610730565b005b6102a560048036038101906102a09190612409565b610746565b6040516102b29190612503565b60405180910390f35b6102d560048036038101906102d09190612409565b6107b8565b6040516102e29190612473565b60405180910390f35b6103056004803603810190610300919061256c565b6107c9565b6040516103129190612503565b60405180910390f35b61032361087f565b005b61033f600480360381019061033a9190612409565b610892565b60405161034c91906123b6565b60405180910390f35b61035d61092d565b60405161036a9190612473565b60405180910390f35b61037b610955565b60405161038891906123b6565b60405180910390f35b6103ab60048036038101906103a691906125c1565b6109e5565b005b6103c760048036038101906103c2919061272b565b6109fb565b005b6103e360048036038101906103de9190612409565b610a18565b6040516103f091906123b6565b60405180910390f35b610413600480360381019061040e9190612849565b610a2a565b005b61042f600480360381019061042a9190612409565b610b2c565b60405161043c91906123b6565b60405180910390f35b61045f600480360381019061045a91906128a3565b610b3e565b60405161046c9190612313565b60405180910390f35b61048f600480360381019061048a919061256c565b610bcc565b005b5f61049b82610c50565b9050919050565b60605f80546104b09061290e565b80601f01602080910402602001604051908101604052809291908181526020018280546104dc9061290e565b80156105275780601f106104fe57610100808354040283529160200191610527565b820191905f5260205f20905b81548152906001019060200180831161050a57829003601f168201915b5050505050905090565b5f61053b82610cb0565b5061054582610d36565b9050919050565b61055e8282610559610d6f565b610d76565b5050565b5f600880549050905090565b5f73ffffffffffffffffffffffffffffffffffffffff168273ffffffffffffffffffffffffffffffffffffffff16036105de575f6040517f64a0ae920000000000000000000000000000000000000000000000000000000081526004016105d59190612473565b60405180910390fd5b5f6105f183836105ec610d6f565b610d88565b90508373ffffffffffffffffffffffffffffffffffffffff168173ffffffffffffffffffffffffffffffffffffffff1614610667578382826040517f64283d7b00000000000000000000000000000000000000000000000000000000815260040161065e9392919061293e565b60405180910390fd5b50505050565b5f610677836107c9565b82106106bc5782826040517fa57d13dc0000000000000000000000000000000000000000000000000000000081526004016106b3929190612973565b60405180910390fd5b60065f8473ffffffffffffffffffffffffffffffffffffffff1673ffffffffffffffffffffffffffffffffffffffff1681526020019081526020015f205f8381526020019081526020015f2054905092915050565b61072b83838360405180602001604052805f8152506109fb565b505050565b6107425f8261073d610d6f565b610d88565b5050565b5f61074f610562565b8210610794575f826040517fa57d13dc00000000000000000000000000000000000000000000000000000000815260040161078b929190612973565b60405180910390fd5b600882815481106107a8576107a761299a565b5b905f5260205f2001549050919050565b5f6107c282610cb0565b9050919050565b5f8073ffffffffffffffffffffffffffffffffffffffff168273ffffffffffffffffffffffffffffffffffffffff160361083a575f6040517f89c62b640000000000000000000000000000000000000000000000000000000081526004016108319190612473565b60405180910390fd5b60035f8373ffffffffffffffffffffffffffffffffffffffff1673ffffffffffffffffffffffffffffffffffffffff1681526020019081526020015f20549050919050565b610887610d9d565b6108905f610e24565b565b600d602052805f5260405f205f9150905080546108ae9061290e565b80601f01602080910402602001604051908101604052809291908181526020018280546108da9061290e565b80156109255780601f106108fc57610100808354040283529160200191610925565b820191905f5260205f20905b81548152906001019060200180831161090857829003601f168201915b505050505081565b5f600b5f9054906101000a900473ffffffffffffffffffffffffffffffffffffffff16905090565b6060600180546109649061290e565b80601f01602080910402602001604051908101604052809291908181526020018280546109909061290e565b80156109db5780601f106109b2576101008083540402835291602001916109db565b820191905f5260205f20905b8154815290600101906020018083116109be57829003601f168201915b5050505050905090565b6109f76109f0610d6f565b8383610ee7565b5050565b610a0684848461056e565b610a1284848484611050565b50505050565b6060610a2382611202565b9050919050565b610a32610d9d565b5f600c5f815480929190610a45906129f4565b919050559050610a55838261130d565b5f6040518060400160405280600581526020017f2e6a736f6e00000000000000000000000000000000000000000000000000000081525090505f610a9883610b2c565b82604051602001610aaa929190612abf565b6040516020818303038152906040529050610ac5838261132a565b83600d5f8581526020019081526020015f209081610ae39190612c8a565b507f1336a44a2cfb3080c671b5094092b50815f6f28916a615b5f6dbd656b068b54b83610b0f85610a18565b604051610b1d929190612d59565b60405180910390a15050505050565b6060610b3782611384565b9050919050565b5f60055f8473ffffffffffffffffffffffffffffffffffffffff1673ffffffffffffffffffffffffffffffffffffffff1681526020019081526020015f205f8373ffffffffffffffffffffffffffffffffffffffff1673ffffffffffffffffffffffffffffffffffffffff1681526020019081526020015f205f9054906101000a900460ff16905092915050565b610bd4610d9d565b5f73ffffffffffffffffffffffffffffffffffffffff168173ffffffffffffffffffffffffffffffffffffffff1603610c44575f6040517f1e4fbdf7000000000000000000000000000000000000000000000000000000008152600401610c3b9190612473565b60405180910390fd5b610c4d81610e24565b50565b5f634906490660e01b7bffffffffffffffffffffffffffffffffffffffffffffffffffffffff1916827bffffffffffffffffffffffffffffffffffffffffffffffffffffffff19161480610ca95750610ca88261144e565b5b9050919050565b5f80610cbb836114c7565b90505f73ffffffffffffffffffffffffffffffffffffffff168173ffffffffffffffffffffffffffffffffffffffff1603610d2d57826040517f7e273289000000000000000000000000000000000000000000000000000000008152600401610d249190612503565b60405180910390fd5b80915050919050565b5f60045f8381526020019081526020015f205f9054906101000a900473ffffffffffffffffffffffffffffffffffffffff169050919050565b5f33905090565b610d838383836001611500565b505050565b5f610d948484846116bf565b90509392505050565b610da5610d6f565b73ffffffffffffffffffffffffffffffffffffffff16610dc361092d565b73ffffffffffffffffffffffffffffffffffffffff1614610e2257610de6610d6f565b6040517f118cdaa7000000000000000000000000000000000000000000000000000000008152600401610e199190612473565b60405180910390fd5b565b5f600b5f9054906101000a900473ffffffffffffffffffffffffffffffffffffffff16905081600b5f6101000a81548173ffffffffffffffffffffffffffffffffffffffff021916908373ffffffffffffffffffffffffffffffffffffffff1602179055508173ffffffffffffffffffffffffffffffffffffffff168173ffffffffffffffffffffffffffffffffffffffff167f8be0079c531659141344cd1fd0a4f28419497f9722a3daafe3b4186f6b6457e060405160405180910390a35050565b5f73ffffffffffffffffffffffffffffffffffffffff168273ffffffffffffffffffffffffffffffffffffffff1603610f5757816040517f5b08ba18000000000000000000000000000000000000000000000000000000008152600401610f4e9190612473565b60405180910390fd5b8060055f8573ffffffffffffffffffffffffffffffffffffffff1673ffffffffffffffffffffffffffffffffffffffff1681526020019081526020015f205f8473ffffffffffffffffffffffffffffffffffffffff1673ffffffffffffffffffffffffffffffffffffffff1681526020019081526020015f205f6101000a81548160ff0219169083151502179055508173ffffffffffffffffffffffffffffffffffffffff168373ffffffffffffffffffffffffffffffffffffffff167f17307eab39ab6107e8899845ad3d59bd9653f200f220920489ca2b5937696c31836040516110439190612313565b60405180910390a3505050565b5f8373ffffffffffffffffffffffffffffffffffffffff163b11156111fc578273ffffffffffffffffffffffffffffffffffffffff1663150b7a02611093610d6f565b8685856040518563ffffffff1660e01b81526004016110b59493929190612dd9565b6020604051808303815f875af19250505080156110f057506040513d601f19601f820116820180604052508101906110ed9190612e37565b60015b611171573d805f811461111e576040519150601f19603f3d011682016040523d82523d5f602084013e611123565b606091505b505f81510361116957836040517f64a0ae920000000000000000000000000000000000000000000000000000000081526004016111609190612473565b60405180910390fd5b805181602001fd5b63150b7a0260e01b7bffffffffffffffffffffffffffffffffffffffffffffffffffffffff1916817bffffffffffffffffffffffffffffffffffffffffffffffffffffffff1916146111fa57836040517f64a0ae920000000000000000000000000000000000000000000000000000000081526004016111f19190612473565b60405180910390fd5b505b50505050565b606061120d82610cb0565b505f600a5f8481526020019081526020015f20805461122b9061290e565b80601f01602080910402602001604051908101604052809291908181526020018280546112579061290e565b80156112a25780601f10611279576101008083540402835291602001916112a2565b820191905f5260205f20905b81548152906001019060200180831161128557829003601f168201915b505050505090505f6112b26117d9565b90505f8151036112c6578192505050611308565b5f825111156112fa5780826040516020016112e2929190612e62565b60405160208183030381529060405292505050611308565b611303846117f9565b925050505b919050565b611326828260405180602001604052805f81525061185f565b5050565b80600a5f8481526020019081526020015f2090816113489190612c8a565b507ff8e1a15aba9398e019f0b49df1a4fde98ee17ae345cb5f6b5e2c27f5033e8ce7826040516113789190612503565b60405180910390a15050565b60605f60016113928461187a565b0190505f8167ffffffffffffffff8111156113b0576113af612607565b5b6040519080825280601f01601f1916602001820160405280156113e25781602001600182028036833780820191505090505b5090505f82602001820190505b600115611443578080600190039150507f3031323334353637383961626364656600000000000000000000000000000000600a86061a8153600a858161143857611437612e85565b5b0494505f85036113ef575b819350505050919050565b5f7f780e9d63000000000000000000000000000000000000000000000000000000007bffffffffffffffffffffffffffffffffffffffffffffffffffffffff1916827bffffffffffffffffffffffffffffffffffffffffffffffffffffffff191614806114c057506114bf826119cb565b5b9050919050565b5f60025f8381526020019081526020015f205f9054906101000a900473ffffffffffffffffffffffffffffffffffffffff169050919050565b808061153857505f73ffffffffffffffffffffffffffffffffffffffff168273ffffffffffffffffffffffffffffffffffffffff1614155b1561166a575f61154784610cb0565b90505f73ffffffffffffffffffffffffffffffffffffffff168373ffffffffffffffffffffffffffffffffffffffff16141580156115b157508273ffffffffffffffffffffffffffffffffffffffff168173ffffffffffffffffffffffffffffffffffffffff1614155b80156115c457506115c28184610b3e565b155b1561160657826040517fa9fbf51f0000000000000000000000000000000000000000000000000000000081526004016115fd9190612473565b60405180910390fd5b811561166857838573ffffffffffffffffffffffffffffffffffffffff168273ffffffffffffffffffffffffffffffffffffffff167f8c5be1e5ebec7d5bd14f71427d1e84f3dd0314c0f7b2291e5b200ac8c7c3b92560405160405180910390a45b505b8360045f8581526020019081526020015f205f6101000a81548173ffffffffffffffffffffffffffffffffffffffff021916908373ffffffffffffffffffffffffffffffffffffffff16021790555050505050565b5f806116cc858585611aac565b90505f73ffffffffffffffffffffffffffffffffffffffff168173ffffffffffffffffffffffffffffffffffffffff160361170f5761170a84611cb7565b61174e565b8473ffffffffffffffffffffffffffffffffffffffff168173ffffffffffffffffffffffffffffffffffffffff161461174d5761174c8185611cfb565b5b5b5f73ffffffffffffffffffffffffffffffffffffffff168573ffffffffffffffffffffffffffffffffffffffff160361178f5761178a84611e45565b6117ce565b8473ffffffffffffffffffffffffffffffffffffffff168173ffffffffffffffffffffffffffffffffffffffff16146117cd576117cc8585611f05565b5b5b809150509392505050565b6060604051806080016040528060478152602001612f1360479139905090565b606061180482610cb0565b505f61180e6117d9565b90505f81511161182c5760405180602001604052805f815250611857565b8061183684611384565b604051602001611847929190612e62565b6040516020818303038152906040525b915050919050565b6118698383611f89565b6118755f848484611050565b505050565b5f805f90507a184f03e93ff9f4daa797ed6e38ed64bf6a1f01000000000000000083106118d6577a184f03e93ff9f4daa797ed6e38ed64bf6a1f01000000000000000083816118cc576118cb612e85565b5b0492506040810190505b6d04ee2d6d415b85acef81000000008310611913576d04ee2d6d415b85acef8100000000838161190957611908612e85565b5b0492506020810190505b662386f26fc10000831061194257662386f26fc10000838161193857611937612e85565b5b0492506010810190505b6305f5e100831061196b576305f5e100838161196157611960612e85565b5b0492506008810190505b612710831061199057612710838161198657611985612e85565b5b0492506004810190505b606483106119b357606483816119a9576119a8612e85565b5b0492506002810190505b600a83106119c2576001810190505b80915050919050565b5f7f80ac58cd000000000000000000000000000000000000000000000000000000007bffffffffffffffffffffffffffffffffffffffffffffffffffffffff1916827bffffffffffffffffffffffffffffffffffffffffffffffffffffffff19161480611a9557507f5b5e139f000000000000000000000000000000000000000000000000000000007bffffffffffffffffffffffffffffffffffffffffffffffffffffffff1916827bffffffffffffffffffffffffffffffffffffffffffffffffffffffff1916145b80611aa55750611aa48261207c565b5b9050919050565b5f80611ab7846114c7565b90505f73ffffffffffffffffffffffffffffffffffffffff168373ffffffffffffffffffffffffffffffffffffffff1614611af857611af78184866120e5565b5b5f73ffffffffffffffffffffffffffffffffffffffff168173ffffffffffffffffffffffffffffffffffffffff1614611b8357611b375f855f80611500565b600160035f8373ffffffffffffffffffffffffffffffffffffffff1673ffffffffffffffffffffffffffffffffffffffff1681526020019081526020015f205f82825403925050819055505b5f73ffffffffffffffffffffffffffffffffffffffff168573ffffffffffffffffffffffffffffffffffffffff1614611c0257600160035f8773ffffffffffffffffffffffffffffffffffffffff1673ffffffffffffffffffffffffffffffffffffffff1681526020019081526020015f205f82825401925050819055505b8460025f8681526020019081526020015f205f6101000a81548173ffffffffffffffffffffffffffffffffffffffff021916908373ffffffffffffffffffffffffffffffffffffffff160217905550838573ffffffffffffffffffffffffffffffffffffffff168273ffffffffffffffffffffffffffffffffffffffff167fddf252ad1be2c89b69c2b068fc378daa952ba7f163c4a11628f55a4df523b3ef60405160405180910390a4809150509392505050565b60088054905060095f8381526020019081526020015f2081905550600881908060018154018082558091505060019003905f5260205f20015f909190919091505550565b5f611d05836107c9565b90505f60075f8481526020019081526020015f20549050818114611ddc575f60065f8673ffffffffffffffffffffffffffffffffffffffff1673ffffffffffffffffffffffffffffffffffffffff1681526020019081526020015f205f8481526020019081526020015f205490508060065f8773ffffffffffffffffffffffffffffffffffffffff1673ffffffffffffffffffffffffffffffffffffffff1681526020019081526020015f205f8481526020019081526020015f20819055508160075f8381526020019081526020015f2081905550505b60075f8481526020019081526020015f205f905560065f8573ffffffffffffffffffffffffffffffffffffffff1673ffffffffffffffffffffffffffffffffffffffff1681526020019081526020015f205f8381526020019081526020015f205f905550505050565b5f6001600880549050611e589190612eb2565b90505f60095f8481526020019081526020015f205490505f60088381548110611e8457611e8361299a565b5b905f5260205f20015490508060088381548110611ea457611ea361299a565b5b905f5260205f2001819055508160095f8381526020019081526020015f208190555060095f8581526020019081526020015f205f90556008805480611eec57611eeb612ee5565b5b600190038181905f5260205f20015f9055905550505050565b5f6001611f11846107c9565b611f1b9190612eb2565b90508160065f8573ffffffffffffffffffffffffffffffffffffffff1673ffffffffffffffffffffffffffffffffffffffff1681526020019081526020015f205f8381526020019081526020015f20819055508060075f8481526020019081526020015f2081905550505050565b5f73ffffffffffffffffffffffffffffffffffffffff168273ffffffffffffffffffffffffffffffffffffffff1603611ff9575f6040517f64a0ae92000000000000000000000000000000000000000000000000000000008152600401611ff09190612473565b60405180910390fd5b5f61200583835f610d88565b90505f73ffffffffffffffffffffffffffffffffffffffff168173ffffffffffffffffffffffffffffffffffffffff1614612077575f6040517f73c6ac6e00000000000000000000000000000000000000000000000000000000815260040161206e9190612473565b60405180910390fd5b505050565b5f7f01ffc9a7000000000000000000000000000000000000000000000000000000007bffffffffffffffffffffffffffffffffffffffffffffffffffffffff1916827bffffffffffffffffffffffffffffffffffffffffffffffffffffffff1916149050919050565b6120f08383836121a8565b6121a3575f73ffffffffffffffffffffffffffffffffffffffff168373ffffffffffffffffffffffffffffffffffffffff160361216457806040517f7e27328900000000000000000000000000000000000000000000000000000000815260040161215b9190612503565b60405180910390fd5b81816040517f177e802f00000000000000000000000000000000000000000000000000000000815260040161219a929190612973565b60405180910390fd5b505050565b5f8073ffffffffffffffffffffffffffffffffffffffff168373ffffffffffffffffffffffffffffffffffffffff161415801561225f57508273ffffffffffffffffffffffffffffffffffffffff168473ffffffffffffffffffffffffffffffffffffffff161480612220575061221f8484610b3e565b5b8061225e57508273ffffffffffffffffffffffffffffffffffffffff1661224683610d36565b73ffffffffffffffffffffffffffffffffffffffff16145b5b90509392505050565b5f604051905090565b5f80fd5b5f80fd5b5f7fffffffff0000000000000000000000000000000000000000000000000000000082169050919050565b6122ad81612279565b81146122b7575f80fd5b50565b5f813590506122c8816122a4565b92915050565b5f602082840312156122e3576122e2612271565b5b5f6122f0848285016122ba565b91505092915050565b5f8115159050919050565b61230d816122f9565b82525050565b5f6020820190506123265f830184612304565b92915050565b5f81519050919050565b5f82825260208201905092915050565b5f5b83811015612363578082015181840152602081019050612348565b5f8484015250505050565b5f601f19601f8301169050919050565b5f6123888261232c565b6123928185612336565b93506123a2818560208601612346565b6123ab8161236e565b840191505092915050565b5f6020820190508181035f8301526123ce818461237e565b905092915050565b5f819050919050565b6123e8816123d6565b81146123f2575f80fd5b50565b5f81359050612403816123df565b92915050565b5f6020828403121561241e5761241d612271565b5b5f61242b848285016123f5565b91505092915050565b5f73ffffffffffffffffffffffffffffffffffffffff82169050919050565b5f61245d82612434565b9050919050565b61246d81612453565b82525050565b5f6020820190506124865f830184612464565b92915050565b61249581612453565b811461249f575f80fd5b50565b5f813590506124b08161248c565b92915050565b5f80604083850312156124cc576124cb612271565b5b5f6124d9858286016124a2565b92505060206124ea858286016123f5565b9150509250929050565b6124fd816123d6565b82525050565b5f6020820190506125165f8301846124f4565b92915050565b5f805f6060848603121561253357612532612271565b5b5f612540868287016124a2565b9350506020612551868287016124a2565b9250506040612562868287016123f5565b9150509250925092565b5f6020828403121561258157612580612271565b5b5f61258e848285016124a2565b91505092915050565b6125a0816122f9565b81146125aa575f80fd5b50565b5f813590506125bb81612597565b92915050565b5f80604083850312156125d7576125d6612271565b5b5f6125e4858286016124a2565b92505060206125f5858286016125ad565b9150509250929050565b5f80fd5b5f80fd5b7f4e487b71000000000000000000000000000000000000000000000000000000005f52604160045260245ffd5b61263d8261236e565b810181811067ffffffffffffffff8211171561265c5761265b612607565b5b80604052505050565b5f61266e612268565b905061267a8282612634565b919050565b5f67ffffffffffffffff82111561269957612698612607565b5b6126a28261236e565b9050602081019050919050565b828183375f83830152505050565b5f6126cf6126ca8461267f565b612665565b9050828152602081018484840111156126eb576126ea612603565b5b6126f68482856126af565b509392505050565b5f82601f830112612712576127116125ff565b5b81356127228482602086016126bd565b91505092915050565b5f805f806080858703121561274357612742612271565b5b5f612750878288016124a2565b9450506020612761878288016124a2565b9350506040612772878288016123f5565b925050606085013567ffffffffffffffff81111561279357612792612275565b5b61279f878288016126fe565b91505092959194509250565b5f67ffffffffffffffff8211156127c5576127c4612607565b5b6127ce8261236e565b9050602081019050919050565b5f6127ed6127e8846127ab565b612665565b90508281526020810184848401111561280957612808612603565b5b6128148482856126af565b509392505050565b5f82601f8301126128305761282f6125ff565b5b81356128408482602086016127db565b91505092915050565b5f806040838503121561285f5761285e612271565b5b5f61286c858286016124a2565b925050602083013567ffffffffffffffff81111561288d5761288c612275565b5b6128998582860161281c565b9150509250929050565b5f80604083850312156128b9576128b8612271565b5b5f6128c6858286016124a2565b92505060206128d7858286016124a2565b9150509250929050565b7f4e487b71000000000000000000000000000000000000000000000000000000005f52602260045260245ffd5b5f600282049050600182168061292557607f821691505b602082108103612938576129376128e1565b5b50919050565b5f6060820190506129515f830186612464565b61295e60208301856124f4565b61296b6040830184612464565b949350505050565b5f6040820190506129865f830185612464565b61299360208301846124f4565b9392505050565b7f4e487b71000000000000000000000000000000000000000000000000000000005f52603260045260245ffd5b7f4e487b71000000000000000000000000000000000000000000000000000000005f52601160045260245ffd5b5f6129fe826123d6565b91507fffffffffffffffffffffffffffffffffffffffffffffffffffffffffffffffff8203612a3057612a2f6129c7565b5b600182019050919050565b5f81905092915050565b7f53434f4c000000000000000000000000000000000000000000000000000000005f82015250565b5f612a79600483612a3b565b9150612a8482612a45565b600482019050919050565b5f612a998261232c565b612aa38185612a3b565b9350612ab3818560208601612346565b80840191505092915050565b5f612ac982612a6d565b9150612ad58285612a8f565b9150612ae18284612a8f565b91508190509392505050565b5f819050815f5260205f209050919050565b5f6020601f8301049050919050565b5f82821b905092915050565b5f60088302612b497fffffffffffffffffffffffffffffffffffffffffffffffffffffffffffffffff82612b0e565b612b538683612b0e565b95508019841693508086168417925050509392505050565b5f819050919050565b5f612b8e612b89612b84846123d6565b612b6b565b6123d6565b9050919050565b5f819050919050565b612ba783612b74565b612bbb612bb382612b95565b848454612b1a565b825550505050565b5f90565b612bcf612bc3565b612bda818484612b9e565b505050565b5b81811015612bfd57612bf25f82612bc7565b600181019050612be0565b5050565b601f821115612c4257612c1381612aed565b612c1c84612aff565b81016020851015612c2b578190505b612c3f612c3785612aff565b830182612bdf565b50505b505050565b5f82821c905092915050565b5f612c625f1984600802612c47565b1980831691505092915050565b5f612c7a8383612c53565b9150826002028217905092915050565b612c938261232c565b67ffffffffffffffff811115612cac57612cab612607565b5b612cb6825461290e565b612cc1828285612c01565b5f60209050601f831160018114612cf2575f8415612ce0578287015190505b612cea8582612c6f565b865550612d51565b601f198416612d0086612aed565b5f5b82811015612d2757848901518255600182019150602085019450602081019050612d02565b86831015612d445784890151612d40601f891682612c53565b8355505b6001600288020188555050505b505050505050565b5f604082019050612d6c5f8301856124f4565b8181036020830152612d7e818461237e565b90509392505050565b5f81519050919050565b5f82825260208201905092915050565b5f612dab82612d87565b612db58185612d91565b9350612dc5818560208601612346565b612dce8161236e565b840191505092915050565b5f608082019050612dec5f830187612464565b612df96020830186612464565b612e0660408301856124f4565b8181036060830152612e188184612da1565b905095945050505050565b5f81519050612e31816122a4565b92915050565b5f60208284031215612e4c57612e4b612271565b5b5f612e5984828501612e23565b91505092915050565b5f612e6d8285612a8f565b9150612e798284612a8f565b91508190509392505050565b7f4e487b71000000000000000000000000000000000000000000000000000000005f52601260045260245ffd5b5f612ebc826123d6565b9150612ec7836123d6565b9250828203905081811115612edf57612ede6129c7565b5b92915050565b7f4e487b71000000000000000000000000000000000000000000000000000000005f52603160045260245ffdfe687474703a2f2f323032332d70726f6a6563742d7075626c69632e73332d776562736974652d61702d736f757468656173742d312e616d617a6f6e6177732e636f6d2f6e66742fa2646970667358221220e0c01e57d256004d2a1d1dab726e20ec27ff41a6073748b5058fb812c1b9ef1864736f6c63430008140033",
  "immutableReferences": {},
  "source": "// SPDX-License-Identifier: MIT\r\n// Compatible with OpenZeppelin Contracts ^5.0.0\r\npragma solidity ^0.8.20;\r\n\r\nimport \"@openzeppelin/contracts/token/ERC721/ERC721.sol\";\r\nimport \"@openzeppelin/contracts/token/ERC721/extensions/ERC721Enumerable.sol\";\r\nimport \"@openzeppelin/contracts/token/ERC721/extensions/ERC721URIStorage.sol\";\r\nimport \"@openzeppelin/contracts/token/ERC721/extensions/ERC721Burnable.sol\";\r\nimport \"@openzeppelin/contracts/access/Ownable.sol\";\r\nimport \"@openzeppelin/contracts/utils/Strings.sol\";\r\n\r\ncontract Scolaire is ERC721, ERC721Enumerable, ERC721URIStorage, ERC721Burnable, Ownable {\r\n    using Strings for uint256;\r\n\r\n    function uintToString(uint256 value) public pure returns (string memory) {\r\n        return value.toString();\r\n    }\r\n    \r\n    uint256 private _nextTokenId;\r\n    mapping(uint256 => string) public tokenAppNoMapping;\r\n    constructor(address initialOwner)\r\n        ERC721(\"Scolaire\", \"SCOL\")\r\n        Ownable(initialOwner)\r\n    {}\r\n\r\n    function _baseURI() internal pure override returns (string memory) {\r\n        return \"http://2023-project-public.s3-website-ap-southeast-1.amazonaws.com/nft/\";\r\n    }\r\n\r\n\r\n    event SafeMint(uint256 tokenID, string tokenURI);\r\n\r\n    function safeMint(address to, string memory applNo) public onlyOwner {\r\n        uint256 tokenId = _nextTokenId++;\r\n        _safeMint(to, tokenId);\r\n\r\n        string memory jsonExtension = \".json\";\r\n        string memory tempuri= string(abi.encodePacked(\"SCOL\", uintToString(tokenId) , jsonExtension));\r\n\r\n\r\n        _setTokenURI(tokenId, tempuri);\r\n        tokenAppNoMapping[tokenId] = applNo;\r\n\r\n        emit SafeMint(tokenId, tokenURI(tokenId));\r\n    }\r\n\r\n    // The following functions are overrides required by Solidity.\r\n\r\n    function _update(address to, uint256 tokenId, address auth)\r\n        internal\r\n        override(ERC721, ERC721Enumerable)\r\n        returns (address)\r\n    {\r\n        return super._update(to, tokenId, auth);\r\n    }\r\n\r\n    function _increaseBalance(address account, uint128 value)\r\n        internal\r\n        override(ERC721, ERC721Enumerable)\r\n    {\r\n        super._increaseBalance(account, value);\r\n    }\r\n\r\n    function tokenURI(uint256 tokenId)\r\n        public\r\n        view\r\n        override(ERC721, ERC721URIStorage)\r\n        returns (string memory)\r\n    {\r\n        return super.tokenURI(tokenId);\r\n    }\r\n\r\n    function supportsInterface(bytes4 interfaceId)\r\n        public\r\n        view\r\n        override(ERC721, ERC721Enumerable, ERC721URIStorage)\r\n        returns (bool)\r\n    {\r\n        return super.supportsInterface(interfaceId);\r\n    }\r\n}\r\n",
  "sourcePath": "C:\\Boris\\Development\\HKIT_project\\admission_smart_contract\\contracts\\Scolaire.sol",
  "compiler": {
    "name": "solc",
    "version": "0.8.20+commit.a1b79de6.Emscripten.clang"
  },
  "schemaVersion": "3.4.16",
  "updatedAt": "2024-04-14T03:20:39.454Z",
  "networkType": "ethereum",
  "devdoc": {
    "errors": {
      "ERC721EnumerableForbiddenBatchMint()": [
        {
          "details": "Batch mint is not allowed."
        }
      ],
      "ERC721IncorrectOwner(address,uint256,address)": [
        {
          "details": "Indicates an error related to the ownership over a particular token. Used in transfers.",
          "params": {
            "owner": "Address of the current owner of a token.",
            "sender": "Address whose tokens are being transferred.",
            "tokenId": "Identifier number of a token."
          }
        }
      ],
      "ERC721InsufficientApproval(address,uint256)": [
        {
          "details": "Indicates a failure with the `operator`s approval. Used in transfers.",
          "params": {
            "operator": "Address that may be allowed to operate on tokens without being their owner.",
            "tokenId": "Identifier number of a token."
          }
        }
      ],
      "ERC721InvalidApprover(address)": [
        {
          "details": "Indicates a failure with the `approver` of a token to be approved. Used in approvals.",
          "params": {
            "approver": "Address initiating an approval operation."
          }
        }
      ],
      "ERC721InvalidOperator(address)": [
        {
          "details": "Indicates a failure with the `operator` to be approved. Used in approvals.",
          "params": {
            "operator": "Address that may be allowed to operate on tokens without being their owner."
          }
        }
      ],
      "ERC721InvalidOwner(address)": [
        {
          "details": "Indicates that an address can't be an owner. For example, `address(0)` is a forbidden owner in EIP-20. Used in balance queries.",
          "params": {
            "owner": "Address of the current owner of a token."
          }
        }
      ],
      "ERC721InvalidReceiver(address)": [
        {
          "details": "Indicates a failure with the token `receiver`. Used in transfers.",
          "params": {
            "receiver": "Address to which tokens are being transferred."
          }
        }
      ],
      "ERC721InvalidSender(address)": [
        {
          "details": "Indicates a failure with the token `sender`. Used in transfers.",
          "params": {
            "sender": "Address whose tokens are being transferred."
          }
        }
      ],
      "ERC721NonexistentToken(uint256)": [
        {
          "details": "Indicates a `tokenId` whose `owner` is the zero address.",
          "params": {
            "tokenId": "Identifier number of a token."
          }
        }
      ],
      "ERC721OutOfBoundsIndex(address,uint256)": [
        {
          "details": "An `owner`'s token query was out of bounds for `index`. NOTE: The owner being `address(0)` indicates a global out of bounds index."
        }
      ],
      "OwnableInvalidOwner(address)": [
        {
          "details": "The owner is not a valid owner account. (eg. `address(0)`)"
        }
      ],
      "OwnableUnauthorizedAccount(address)": [
        {
          "details": "The caller account is not authorized to perform an operation."
        }
      ]
    },
    "events": {
      "Approval(address,address,uint256)": {
        "details": "Emitted when `owner` enables `approved` to manage the `tokenId` token."
      },
      "ApprovalForAll(address,address,bool)": {
        "details": "Emitted when `owner` enables or disables (`approved`) `operator` to manage all of its assets."
      },
      "BatchMetadataUpdate(uint256,uint256)": {
        "details": "This event emits when the metadata of a range of tokens is changed. So that the third-party platforms such as NFT market could timely update the images and related attributes of the NFTs."
      },
      "MetadataUpdate(uint256)": {
        "details": "This event emits when the metadata of a token is changed. So that the third-party platforms such as NFT market could timely update the images and related attributes of the NFT."
      },
      "Transfer(address,address,uint256)": {
        "details": "Emitted when `tokenId` token is transferred from `from` to `to`."
      }
    },
    "kind": "dev",
    "methods": {
      "approve(address,uint256)": {
        "details": "See {IERC721-approve}."
      },
      "balanceOf(address)": {
        "details": "See {IERC721-balanceOf}."
      },
      "burn(uint256)": {
        "details": "Burns `tokenId`. See {ERC721-_burn}. Requirements: - The caller must own `tokenId` or be an approved operator."
      },
      "getApproved(uint256)": {
        "details": "See {IERC721-getApproved}."
      },
      "isApprovedForAll(address,address)": {
        "details": "See {IERC721-isApprovedForAll}."
      },
      "name()": {
        "details": "See {IERC721Metadata-name}."
      },
      "owner()": {
        "details": "Returns the address of the current owner."
      },
      "ownerOf(uint256)": {
        "details": "See {IERC721-ownerOf}."
      },
      "renounceOwnership()": {
        "details": "Leaves the contract without owner. It will not be possible to call `onlyOwner` functions. Can only be called by the current owner. NOTE: Renouncing ownership will leave the contract without an owner, thereby disabling any functionality that is only available to the owner."
      },
      "safeTransferFrom(address,address,uint256)": {
        "details": "See {IERC721-safeTransferFrom}."
      },
      "safeTransferFrom(address,address,uint256,bytes)": {
        "details": "See {IERC721-safeTransferFrom}."
      },
      "setApprovalForAll(address,bool)": {
        "details": "See {IERC721-setApprovalForAll}."
      },
      "symbol()": {
        "details": "See {IERC721Metadata-symbol}."
      },
      "tokenByIndex(uint256)": {
        "details": "See {IERC721Enumerable-tokenByIndex}."
      },
      "tokenOfOwnerByIndex(address,uint256)": {
        "details": "See {IERC721Enumerable-tokenOfOwnerByIndex}."
      },
      "totalSupply()": {
        "details": "See {IERC721Enumerable-totalSupply}."
      },
      "transferFrom(address,address,uint256)": {
        "details": "See {IERC721-transferFrom}."
      },
      "transferOwnership(address)": {
        "details": "Transfers ownership of the contract to a new account (`newOwner`). Can only be called by the current owner."
      }
    },
    "version": 1
  },
  "userdoc": {
    "kind": "user",
    "methods": {},
    "version": 1
  }
}