{
  "contractName": "ScolaireApplication",
  "abi": [
    {
      "inputs": [],
      "stateMutability": "nonpayable",
      "type": "constructor"
    },
    {
      "inputs": [],
      "name": "EmptyArgs",
      "type": "error"
    },
    {
      "inputs": [],
      "name": "EmptySource",
      "type": "error"
    },
    {
      "inputs": [],
      "name": "NoInlineSecrets",
      "type": "error"
    },
    {
      "inputs": [],
      "name": "OnlyRouterCanFulfill",
      "type": "error"
    },
    {
      "inputs": [
        {
          "internalType": "bytes32",
          "name": "requestId",
          "type": "bytes32"
        }
      ],
      "name": "UnexpectedRequestID",
      "type": "error"
    },
    {
      "anonymous": false,
      "inputs": [
        {
          "indexed": true,
          "internalType": "address",
          "name": "from",
          "type": "address"
        },
        {
          "indexed": true,
          "internalType": "address",
          "name": "to",
          "type": "address"
        }
      ],
      "name": "OwnershipTransferRequested",
      "type": "event"
    },
    {
      "anonymous": false,
      "inputs": [
        {
          "indexed": true,
          "internalType": "address",
          "name": "from",
          "type": "address"
        },
        {
          "indexed": true,
          "internalType": "address",
          "name": "to",
          "type": "address"
        }
      ],
      "name": "OwnershipTransferred",
      "type": "event"
    },
    {
      "anonymous": false,
      "inputs": [
        {
          "indexed": true,
          "internalType": "bytes32",
          "name": "id",
          "type": "bytes32"
        }
      ],
      "name": "RequestFulfilled",
      "type": "event"
    },
    {
      "anonymous": false,
      "inputs": [
        {
          "indexed": true,
          "internalType": "bytes32",
          "name": "id",
          "type": "bytes32"
        }
      ],
      "name": "RequestSent",
      "type": "event"
    },
    {
      "anonymous": false,
      "inputs": [
        {
          "indexed": true,
          "internalType": "bytes32",
          "name": "requestId",
          "type": "bytes32"
        },
        {
          "indexed": false,
          "internalType": "string",
          "name": "character",
          "type": "string"
        },
        {
          "indexed": false,
          "internalType": "bytes",
          "name": "response",
          "type": "bytes"
        },
        {
          "indexed": false,
          "internalType": "bytes",
          "name": "err",
          "type": "bytes"
        }
      ],
      "name": "Response",
      "type": "event"
    },
    {
      "anonymous": false,
      "inputs": [
        {
          "indexed": true,
          "internalType": "address",
          "name": "_from",
          "type": "address"
        },
        {
          "indexed": false,
          "internalType": "uint256",
          "name": "updateTime",
          "type": "uint256"
        },
        {
          "indexed": false,
          "internalType": "string",
          "name": "appNo",
          "type": "string"
        },
        {
          "indexed": false,
          "internalType": "string",
          "name": "newStatus",
          "type": "string"
        },
        {
          "indexed": false,
          "internalType": "string",
          "name": "checkResult",
          "type": "string"
        }
      ],
      "name": "StatusUpdate",
      "type": "event"
    },
    {
      "inputs": [],
      "name": "acceptOwnership",
      "outputs": [],
      "stateMutability": "nonpayable",
      "type": "function"
    },
    {
      "inputs": [
        {
          "internalType": "string",
          "name": "",
          "type": "string"
        }
      ],
      "name": "checkResults",
      "outputs": [
        {
          "internalType": "string",
          "name": "",
          "type": "string"
        }
      ],
      "stateMutability": "view",
      "type": "function",
      "constant": true
    },
    {
      "inputs": [
        {
          "internalType": "string",
          "name": "",
          "type": "string"
        }
      ],
      "name": "fulfilled",
      "outputs": [
        {
          "internalType": "bool",
          "name": "",
          "type": "bool"
        }
      ],
      "stateMutability": "view",
      "type": "function",
      "constant": true
    },
    {
      "inputs": [
        {
          "internalType": "bytes32",
          "name": "requestId",
          "type": "bytes32"
        },
        {
          "internalType": "bytes",
          "name": "response",
          "type": "bytes"
        },
        {
          "internalType": "bytes",
          "name": "err",
          "type": "bytes"
        }
      ],
      "name": "handleOracleFulfillment",
      "outputs": [],
      "stateMutability": "nonpayable",
      "type": "function"
    },
    {
      "inputs": [],
      "name": "owner",
      "outputs": [
        {
          "internalType": "address",
          "name": "",
          "type": "address"
        }
      ],
      "stateMutability": "view",
      "type": "function",
      "constant": true
    },
    {
      "inputs": [],
      "name": "s_checkresult",
      "outputs": [
        {
          "internalType": "string",
          "name": "",
          "type": "string"
        }
      ],
      "stateMutability": "view",
      "type": "function",
      "constant": true
    },
    {
      "inputs": [],
      "name": "s_lastAppNo",
      "outputs": [
        {
          "internalType": "string",
          "name": "",
          "type": "string"
        }
      ],
      "stateMutability": "view",
      "type": "function",
      "constant": true
    },
    {
      "inputs": [],
      "name": "s_lastError",
      "outputs": [
        {
          "internalType": "bytes",
          "name": "",
          "type": "bytes"
        }
      ],
      "stateMutability": "view",
      "type": "function",
      "constant": true
    },
    {
      "inputs": [],
      "name": "s_lastFullfilledRequestId",
      "outputs": [
        {
          "internalType": "bytes32",
          "name": "",
          "type": "bytes32"
        }
      ],
      "stateMutability": "view",
      "type": "function",
      "constant": true
    },
    {
      "inputs": [],
      "name": "s_lastRequestId",
      "outputs": [
        {
          "internalType": "bytes32",
          "name": "",
          "type": "bytes32"
        }
      ],
      "stateMutability": "view",
      "type": "function",
      "constant": true
    },
    {
      "inputs": [],
      "name": "s_lastResponse",
      "outputs": [
        {
          "internalType": "bytes",
          "name": "",
          "type": "bytes"
        }
      ],
      "stateMutability": "view",
      "type": "function",
      "constant": true
    },
    {
      "inputs": [
        {
          "internalType": "string",
          "name": "",
          "type": "string"
        },
        {
          "internalType": "uint256",
          "name": "",
          "type": "uint256"
        }
      ],
      "name": "statushistory",
      "outputs": [
        {
          "internalType": "uint256",
          "name": "time",
          "type": "uint256"
        },
        {
          "internalType": "string",
          "name": "status",
          "type": "string"
        },
        {
          "internalType": "string",
          "name": "checkResult",
          "type": "string"
        }
      ],
      "stateMutability": "view",
      "type": "function",
      "constant": true
    },
    {
      "inputs": [
        {
          "internalType": "address",
          "name": "to",
          "type": "address"
        }
      ],
      "name": "transferOwnership",
      "outputs": [],
      "stateMutability": "nonpayable",
      "type": "function"
    },
    {
      "inputs": [
        {
          "internalType": "string",
          "name": "appNo",
          "type": "string"
        },
        {
          "internalType": "string",
          "name": "newStatus",
          "type": "string"
        },
        {
          "internalType": "string",
          "name": "checkResult",
          "type": "string"
        }
      ],
      "name": "updateStatus",
      "outputs": [],
      "stateMutability": "nonpayable",
      "type": "function"
    },
    {
      "inputs": [
        {
          "internalType": "string",
          "name": "appNo",
          "type": "string"
        }
      ],
      "name": "getHistory",
      "outputs": [
        {
          "components": [
            {
              "internalType": "uint256",
              "name": "time",
              "type": "uint256"
            },
            {
              "internalType": "string",
              "name": "status",
              "type": "string"
            },
            {
              "internalType": "string",
              "name": "checkResult",
              "type": "string"
            }
          ],
          "internalType": "struct ScolaireApplication.StatusChange[]",
          "name": "",
          "type": "tuple[]"
        }
      ],
      "stateMutability": "view",
      "type": "function",
      "constant": true
    },
    {
      "inputs": [
        {
          "internalType": "uint64",
          "name": "subscriptionId",
          "type": "uint64"
        },
        {
          "internalType": "string[]",
          "name": "args",
          "type": "string[]"
        }
      ],
      "name": "sendRequest",
      "outputs": [
        {
          "internalType": "bytes32",
          "name": "requestId",
          "type": "bytes32"
        }
      ],
      "stateMutability": "nonpayable",
      "type": "function"
    },
    {
      "inputs": [
        {
          "internalType": "string",
          "name": "str",
          "type": "string"
        }
      ],
      "name": "stringToBytes32",
      "outputs": [
        {
          "internalType": "bytes32",
          "name": "",
          "type": "bytes32"
        }
      ],
      "stateMutability": "pure",
      "type": "function",
      "constant": true
    }
  ],
  "bytecode": "0x60a060405273b83e47c2bc239b3bf370bc41e1459a34b41238d0600b5f6101000a81548173ffffffffffffffffffffffffffffffffffffffff021916908373ffffffffffffffffffffffffffffffffffffffff160217905550604051806102a00160405280610265815260200162003e146102659139600c9081620000859190620005c6565b50620493e0600d5f6101000a81548163ffffffff021916908363ffffffff1602179055507f66756e2d657468657265756d2d7365706f6c69612d31000000000000000000005f1b600e55348015620000db575f80fd5b5033805f600b5f9054906101000a900473ffffffffffffffffffffffffffffffffffffffff168073ffffffffffffffffffffffffffffffffffffffff1660808173ffffffffffffffffffffffffffffffffffffffff1681525050505f73ffffffffffffffffffffffffffffffffffffffff168273ffffffffffffffffffffffffffffffffffffffff1603620001a7576040517f08c379a00000000000000000000000000000000000000000000000000000000081526004016200019e9062000708565b60405180910390fd5b815f806101000a81548173ffffffffffffffffffffffffffffffffffffffff021916908373ffffffffffffffffffffffffffffffffffffffff1602179055505f73ffffffffffffffffffffffffffffffffffffffff168173ffffffffffffffffffffffffffffffffffffffff16146200022c576200022b816200023560201b60201c565b5b50505062000796565b3373ffffffffffffffffffffffffffffffffffffffff168173ffffffffffffffffffffffffffffffffffffffff1603620002a6576040517f08c379a00000000000000000000000000000000000000000000000000000000081526004016200029d9062000776565b60405180910390fd5b8060015f6101000a81548173ffffffffffffffffffffffffffffffffffffffff021916908373ffffffffffffffffffffffffffffffffffffffff1602179055508073ffffffffffffffffffffffffffffffffffffffff165f8054906101000a900473ffffffffffffffffffffffffffffffffffffffff1673ffffffffffffffffffffffffffffffffffffffff167fed8889f560326eb138920d842192f0eb3dd22b4f139c87a2c57538e05bae127860405160405180910390a350565b5f81519050919050565b7f4e487b71000000000000000000000000000000000000000000000000000000005f52604160045260245ffd5b7f4e487b71000000000000000000000000000000000000000000000000000000005f52602260045260245ffd5b5f6002820490506001821680620003de57607f821691505b602082108103620003f457620003f362000399565b5b50919050565b5f819050815f5260205f209050919050565b5f6020601f8301049050919050565b5f82821b905092915050565b5f60088302620004587fffffffffffffffffffffffffffffffffffffffffffffffffffffffffffffffff826200041b565b6200046486836200041b565b95508019841693508086168417925050509392505050565b5f819050919050565b5f819050919050565b5f620004ae620004a8620004a2846200047c565b62000485565b6200047c565b9050919050565b5f819050919050565b620004c9836200048e565b620004e1620004d882620004b5565b84845462000427565b825550505050565b5f90565b620004f7620004e9565b62000504818484620004be565b505050565b5b818110156200052b576200051f5f82620004ed565b6001810190506200050a565b5050565b601f8211156200057a576200054481620003fa565b6200054f846200040c565b810160208510156200055f578190505b620005776200056e856200040c565b83018262000509565b50505b505050565b5f82821c905092915050565b5f6200059c5f19846008026200057f565b1980831691505092915050565b5f620005b683836200058b565b9150826002028217905092915050565b620005d18262000362565b67ffffffffffffffff811115620005ed57620005ec6200036c565b5b620005f98254620003c6565b620006068282856200052f565b5f60209050601f8311600181146200063c575f841562000627578287015190505b620006338582620005a9565b865550620006a2565b601f1984166200064c86620003fa565b5f5b8281101562000675578489015182556001820191506020850194506020810190506200064e565b8683101562000695578489015162000691601f8916826200058b565b8355505b6001600288020188555050505b505050505050565b5f82825260208201905092915050565b7f43616e6e6f7420736574206f776e657220746f207a65726f00000000000000005f82015250565b5f620006f0601883620006aa565b9150620006fd82620006ba565b602082019050919050565b5f6020820190508181035f8301526200072181620006e2565b9050919050565b7f43616e6e6f74207472616e7366657220746f2073656c660000000000000000005f82015250565b5f6200075e601783620006aa565b91506200076b8262000728565b602082019050919050565b5f6020820190508181035f8301526200078f8162000750565b9050919050565b60805161365e620007b65f395f81816103610152611507015261365e5ff3fe608060405234801561000f575f80fd5b5060043610610109575f3560e01c806370588836116100a0578063b1e217491161006f578063b1e21749146102a9578063c2686829146102c7578063cfb51928146102e3578063e360736e14610313578063f2fde38b1461034357610109565b8063705888361461024557806379ba5097146102635780638da5cb5b1461026d5780638e35b5ae1461028b57610109565b80633944ea3a116100dc5780633944ea3a146101a957806348a7d26d146101c75780634b0795a8146101f75780635fd860e71461021557610109565b80630ca761751461010d578063127f07441461012957806333b2db601461015b578063363013971461018b575b5f80fd5b61012760048036038101906101229190611f33565b61035f565b005b610143600480360381019061013e919061208c565b610421565b6040516101529392919061216f565b60405180910390f35b610175600480360381019061017091906121b2565b610585565b6040516101829190612213565b60405180910390f35b6101936105ba565b6040516101a0919061222c565b60405180910390f35b6101b1610646565b6040516101be919061229e565b60405180910390f35b6101e160048036038101906101dc9190612358565b6106d2565b6040516101ee91906123c4565b60405180910390f35b6101ff610861565b60405161020c919061229e565b60405180910390f35b61022f600480360381019061022a91906121b2565b6108ed565b60405161023c919061222c565b60405180910390f35b61024d6109a0565b60405161025a919061222c565b60405180910390f35b61026b610a2c565b005b610275610bbb565b604051610282919061241c565b60405180910390f35b610293610be2565b6040516102a091906123c4565b60405180910390f35b6102b1610be8565b6040516102be91906123c4565b60405180910390f35b6102e160048036038101906102dc9190612435565b610bee565b005b6102fd60048036038101906102f891906121b2565b610ce1565b60405161030a91906123c4565b60405180910390f35b61032d600480360381019061032891906121b2565b610d3f565b60405161033a919061263f565b60405180910390f35b61035d60048036038101906103589190612689565b610ee2565b005b7f000000000000000000000000000000000000000000000000000000000000000073ffffffffffffffffffffffffffffffffffffffff163373ffffffffffffffffffffffffffffffffffffffff16146103e4576040517fc6829f8300000000000000000000000000000000000000000000000000000000815260040160405180910390fd5b6103ef838383610ef6565b827f85e1543bf2f84fe80c6badbce3648c8539ad1df4d2b3d822938ca0538be727e660405160405180910390a2505050565b600a828051602081018201805184825260208301602085012081835280955050505050508181548110610452575f80fd5b905f5260205f2090600302015f9150915050805f015490806001018054610478906126e1565b80601f01602080910402602001604051908101604052809291908181526020018280546104a4906126e1565b80156104ef5780601f106104c6576101008083540402835291602001916104ef565b820191905f5260205f20905b8154815290600101906020018083116104d257829003601f168201915b505050505090806002018054610504906126e1565b80601f0160208091040260200160405190810160405280929190818152602001828054610530906126e1565b801561057b5780601f106105525761010080835404028352916020019161057b565b820191905f5260205f20905b81548152906001019060200180831161055e57829003601f168201915b5050505050905083565b6007818051602081018201805184825260208301602085012081835280955050505050505f915054906101000a900460ff1681565b600f80546105c7906126e1565b80601f01602080910402602001604051908101604052809291908181526020018280546105f3906126e1565b801561063e5780601f106106155761010080835404028352916020019161063e565b820191905f5260205f20905b81548152906001019060200180831161062157829003601f168201915b505050505081565b60048054610653906126e1565b80601f016020809104026020016040519081016040528092919081815260200182805461067f906126e1565b80156106ca5780601f106106a1576101008083540402835291602001916106ca565b820191905f5260205f20905b8154815290600101906020018083116106ad57829003601f168201915b505050505081565b5f6106db61100c565b5f801b6002819055506106ec611d0c565b610787600c80546106fc906126e1565b80601f0160208091040260200160405190810160405280929190818152602001828054610728906126e1565b80156107735780601f1061074a57610100808354040283529160200191610773565b820191905f5260205f20905b81548152906001019060200180831161075657829003601f168201915b50505050508261109b90919063ffffffff16565b5f8484905011156107b2576107b18484906107a291906127c2565b826110ab90919063ffffffff16565b5b838360018181106107c6576107c56127d6565b5b90506020028101906107d8919061280f565b600691826107e7929190612a18565b5061080f6107f4826110f2565b86600d5f9054906101000a900463ffffffff16600e54611503565b6002819055505f600760066040516108279190612b6f565b90815260200160405180910390205f6101000a81548160ff0219169083151502179055505f801b6003819055506002549150509392505050565b6005805461086e906126e1565b80601f016020809104026020016040519081016040528092919081815260200182805461089a906126e1565b80156108e55780601f106108bc576101008083540402835291602001916108e5565b820191905f5260205f20905b8154815290600101906020018083116108c857829003601f168201915b505050505081565b6008818051602081018201805184825260208301602085012081835280955050505050505f915090508054610921906126e1565b80601f016020809104026020016040519081016040528092919081815260200182805461094d906126e1565b80156109985780601f1061096f57610100808354040283529160200191610998565b820191905f5260205f20905b81548152906001019060200180831161097b57829003601f168201915b505050505081565b600680546109ad906126e1565b80601f01602080910402602001604051908101604052809291908181526020018280546109d9906126e1565b8015610a245780601f106109fb57610100808354040283529160200191610a24565b820191905f5260205f20905b815481529060010190602001808311610a0757829003601f168201915b505050505081565b60015f9054906101000a900473ffffffffffffffffffffffffffffffffffffffff1673ffffffffffffffffffffffffffffffffffffffff163373ffffffffffffffffffffffffffffffffffffffff1614610abb576040517f08c379a0000000000000000000000000000000000000000000000000000000008152600401610ab290612bcf565b60405180910390fd5b5f805f9054906101000a900473ffffffffffffffffffffffffffffffffffffffff169050335f806101000a81548173ffffffffffffffffffffffffffffffffffffffff021916908373ffffffffffffffffffffffffffffffffffffffff1602179055505f60015f6101000a81548173ffffffffffffffffffffffffffffffffffffffff021916908373ffffffffffffffffffffffffffffffffffffffff1602179055503373ffffffffffffffffffffffffffffffffffffffff168173ffffffffffffffffffffffffffffffffffffffff167f8be0079c531659141344cd1fd0a4f28419497f9722a3daafe3b4186f6b6457e060405160405180910390a350565b5f805f9054906101000a900473ffffffffffffffffffffffffffffffffffffffff16905090565b60035481565b60025481565b5f429050600a84604051610c029190612c1d565b9081526020016040518091039020604051806060016040528083815260200185815260200184815250908060018154018082558091505060019003905f5260205f2090600302015f909190919091505f820151815f01556020820151816001019081610c6e9190612c33565b506040820151816002019081610c849190612c33565b5050503373ffffffffffffffffffffffffffffffffffffffff167f1e1e85773e11e6848ddeba53d55bb21441cb8d84abbfeebb1438ae96bead2c0e82868686604051610cd39493929190612d02565b60405180910390a250505050565b5f80829050602081511115610d2b576040517f08c379a0000000000000000000000000000000000000000000000000000000008152600401610d2290612da4565b60405180910390fd5b5f6020820180519150508092505050919050565b6060600a82604051610d519190612c1d565b9081526020016040518091039020805480602002602001604051908101604052809291908181526020015f905b82821015610ed7578382905f5260205f2090600302016040518060600160405290815f8201548152602001600182018054610db8906126e1565b80601f0160208091040260200160405190810160405280929190818152602001828054610de4906126e1565b8015610e2f5780601f10610e0657610100808354040283529160200191610e2f565b820191905f5260205f20905b815481529060010190602001808311610e1257829003601f168201915b50505050508152602001600282018054610e48906126e1565b80601f0160208091040260200160405190810160405280929190818152602001828054610e74906126e1565b8015610ebf5780601f10610e9657610100808354040283529160200191610ebf565b820191905f5260205f20905b815481529060010190602001808311610ea257829003601f168201915b50505050508152505081526020019060010190610d7e565b505050509050919050565b610eea61100c565b610ef3816115e2565b50565b8260025414610f3c57826040517fd068bf5b000000000000000000000000000000000000000000000000000000008152600401610f3391906123c4565b60405180910390fd5b8160049081610f4b9190612e1a565b5081600f9081610f5b9190612c33565b5082600381905550600f60086006604051610f769190612b6f565b90815260200160405180910390209081610f909190612f10565b50600160076006604051610fa49190612b6f565b90815260200160405180910390205f6101000a81548160ff021916908315150217905550827f160ed0aaffbef6885155188b91459cb5a97d5daadccf7561d8c46deea6641b50600f60046005604051610fff939291906130f7565b60405180910390a2505050565b5f8054906101000a900473ffffffffffffffffffffffffffffffffffffffff1673ffffffffffffffffffffffffffffffffffffffff163373ffffffffffffffffffffffffffffffffffffffff1614611099576040517f08c379a00000000000000000000000000000000000000000000000000000000081526004016110909061318b565b60405180910390fd5b565b6110a7825f808461170c565b5050565b5f8151036110e5576040517ffe936cb700000000000000000000000000000000000000000000000000000000815260040160405180910390fd5b808260a001819052505050565b60605f6111006101006117b2565b905061114a6040518060400160405280600c81526020017f636f64654c6f636174696f6e0000000000000000000000000000000000000000815250826117d790919063ffffffff16565b611172835f01516002811115611163576111626131a9565b5b826117ff90919063ffffffff16565b6111ba6040518060400160405280600881526020017f6c616e6775616765000000000000000000000000000000000000000000000000815250826117d790919063ffffffff16565b6111e283604001515f8111156111d3576111d26131a9565b5b826117ff90919063ffffffff16565b61122a6040518060400160405280600681526020017f736f757263650000000000000000000000000000000000000000000000000000815250826117d790919063ffffffff16565b6112418360600151826117d790919063ffffffff16565b5f8360a001515111156112fb576112966040518060400160405280600481526020017f6172677300000000000000000000000000000000000000000000000000000000815250826117d790919063ffffffff16565b61129f8161184e565b5f5b8360a00151518110156112f0576112df8460a0015182815181106112c8576112c76127d6565b5b6020026020010151836117d790919063ffffffff16565b806112e990613203565b90506112a1565b506112fa81611876565b5b5f836080015151111561143a575f600281111561131b5761131a6131a9565b5b83602001516002811115611332576113316131a9565b5b03611369576040517fa80d31f700000000000000000000000000000000000000000000000000000000815260040160405180910390fd5b6113b16040518060400160405280600f81526020017f736563726574734c6f636174696f6e0000000000000000000000000000000000815250826117d790919063ffffffff16565b6113da836020015160028111156113cb576113ca6131a9565b5b826117ff90919063ffffffff16565b6114226040518060400160405280600781526020017f7365637265747300000000000000000000000000000000000000000000000000815250826117d790919063ffffffff16565b61143983608001518261189e90919063ffffffff16565b5b5f8360c001515111156114f45761148f6040518060400160405280600981526020017f6279746573417267730000000000000000000000000000000000000000000000815250826117d790919063ffffffff16565b6114988161184e565b5f5b8360c00151518110156114e9576114d88460c0015182815181106114c1576114c06127d6565b5b60200260200101518361189e90919063ffffffff16565b806114e290613203565b905061149a565b506114f381611876565b5b805f01515f0151915050919050565b5f807f000000000000000000000000000000000000000000000000000000000000000073ffffffffffffffffffffffffffffffffffffffff1663461d27628688600188886040518663ffffffff1660e01b8152600401611567959493929190613293565b6020604051808303815f875af1158015611583573d5f803e3d5ffd5b505050506040513d601f19601f820116820180604052508101906115a791906132ff565b9050807f1131472297a800fee664d1d89cfa8f7676ff07189ecc53f80bbb5f4969099db860405160405180910390a280915050949350505050565b3373ffffffffffffffffffffffffffffffffffffffff168173ffffffffffffffffffffffffffffffffffffffff1603611650576040517f08c379a000000000000000000000000000000000000000000000000000000000815260040161164790613374565b60405180910390fd5b8060015f6101000a81548173ffffffffffffffffffffffffffffffffffffffff021916908373ffffffffffffffffffffffffffffffffffffffff1602179055508073ffffffffffffffffffffffffffffffffffffffff165f8054906101000a900473ffffffffffffffffffffffffffffffffffffffff1673ffffffffffffffffffffffffffffffffffffffff167fed8889f560326eb138920d842192f0eb3dd22b4f139c87a2c57538e05bae127860405160405180910390a350565b5f815103611746576040517f22ce3edd00000000000000000000000000000000000000000000000000000000815260040160405180910390fd5b82845f0190600281111561175d5761175c6131a9565b5b90816002811115611771576117706131a9565b5b815250508184604001905f81111561178c5761178b6131a9565b5b90815f81111561179f5761179e6131a9565b5b8152505080846060018190525050505050565b6117ba611d7b565b6117c7815f0151836118c6565b505f816020018181525050919050565b6117e4826003835161193c565b6117fa81835f0151611adc90919063ffffffff16565b505050565b61182060026005600660ff16901b17835f0151611af890919063ffffffff16565b5061184a82826040516020016118369190613392565b60405160208183030381529060405261189e565b5050565b611859816004611b5f565b60018160200181815161186c91906133ab565b9150818152505050565b611881816007611b5f565b60018160200181815161189491906133de565b9150818152505050565b6118ab826002835161193c565b6118c181835f0151611adc90919063ffffffff16565b505050565b6118ce611d9a565b5f6020836118dc919061343e565b14611908576020826118ee919061343e565b60206118fa91906133de565b8261190591906133ab565b91505b818360200181815250506040518084525f81528281016020018181101561192d575f80fd5b80604052505082905092915050565b60178167ffffffffffffffff1611611976576119708160058460ff16901b60ff1617845f0151611af890919063ffffffff16565b50611ad7565b60ff8167ffffffffffffffff16116119d2576119a8601860058460ff16901b17845f0151611af890919063ffffffff16565b506119cc8167ffffffffffffffff166001855f0151611b849092919063ffffffff16565b50611ad6565b61ffff8167ffffffffffffffff1611611a2f57611a05601960058460ff16901b17845f0151611af890919063ffffffff16565b50611a298167ffffffffffffffff166002855f0151611b849092919063ffffffff16565b50611ad5565b63ffffffff8167ffffffffffffffff1611611a8e57611a64601a60058460ff16901b17845f0151611af890919063ffffffff16565b50611a888167ffffffffffffffff166004855f0151611b849092919063ffffffff16565b50611ad4565b611aae601b60058460ff16901b17845f0151611af890919063ffffffff16565b50611ad28167ffffffffffffffff166008855f0151611b849092919063ffffffff16565b505b5b5b5b505050565b611ae4611d9a565b611af083838451611c0d565b905092915050565b611b00611d9a565b5f835f01515190505f600182611b1691906133ab565b905084602001518210611b3a57611b3985600283611b34919061346e565b611cea565b5b84516020838201018581538151831115611b52578282525b5050849250505092915050565b611b7f601f60058360ff16901b17835f0151611af890919063ffffffff16565b505050565b611b8c611d9a565b5f845f01515190505f8184611ba191906133ab565b90508560200151811115611bc657611bc586600283611bc0919061346e565b611cea565b5b5f600185610100611bd791906135de565b611be191906133de565b905086518281018783198251161781528151841115611bfe578382525b50508693505050509392505050565b611c15611d9a565b8251821115611c22575f80fd5b5f845f01515190505f8382611c3791906133ab565b90508560200151811115611c5c57611c5b86600283611c56919061346e565b611cea565b5b5f8087518051856020830101935080851115611c76578482525b60208901925050505b60208610611cbd5780518252602082611c9891906133ab565b9150602081611ca791906133ab565b9050602086611cb691906133de565b9550611c7f565b5f6001876020036101000a0390508019825116818451168181178552505050879450505050509392505050565b5f825f01519050611cfb83836118c6565b50611d068382611adc565b50505050565b6040518060e001604052805f6002811115611d2a57611d296131a9565b5b81526020015f6002811115611d4257611d416131a9565b5b81526020015f80811115611d5957611d586131a9565b5b8152602001606081526020016060815260200160608152602001606081525090565b6040518060400160405280611d8e611d9a565b81526020015f81525090565b6040518060400160405280606081526020015f81525090565b5f604051905090565b5f80fd5b5f80fd5b5f819050919050565b611dd681611dc4565b8114611de0575f80fd5b50565b5f81359050611df181611dcd565b92915050565b5f80fd5b5f80fd5b5f601f19601f8301169050919050565b7f4e487b71000000000000000000000000000000000000000000000000000000005f52604160045260245ffd5b611e4582611dff565b810181811067ffffffffffffffff82111715611e6457611e63611e0f565b5b80604052505050565b5f611e76611db3565b9050611e828282611e3c565b919050565b5f67ffffffffffffffff821115611ea157611ea0611e0f565b5b611eaa82611dff565b9050602081019050919050565b828183375f83830152505050565b5f611ed7611ed284611e87565b611e6d565b905082815260208101848484011115611ef357611ef2611dfb565b5b611efe848285611eb7565b509392505050565b5f82601f830112611f1a57611f19611df7565b5b8135611f2a848260208601611ec5565b91505092915050565b5f805f60608486031215611f4a57611f49611dbc565b5b5f611f5786828701611de3565b935050602084013567ffffffffffffffff811115611f7857611f77611dc0565b5b611f8486828701611f06565b925050604084013567ffffffffffffffff811115611fa557611fa4611dc0565b5b611fb186828701611f06565b9150509250925092565b5f67ffffffffffffffff821115611fd557611fd4611e0f565b5b611fde82611dff565b9050602081019050919050565b5f611ffd611ff884611fbb565b611e6d565b90508281526020810184848401111561201957612018611dfb565b5b612024848285611eb7565b509392505050565b5f82601f8301126120405761203f611df7565b5b8135612050848260208601611feb565b91505092915050565b5f819050919050565b61206b81612059565b8114612075575f80fd5b50565b5f8135905061208681612062565b92915050565b5f80604083850312156120a2576120a1611dbc565b5b5f83013567ffffffffffffffff8111156120bf576120be611dc0565b5b6120cb8582860161202c565b92505060206120dc85828601612078565b9150509250929050565b6120ef81612059565b82525050565b5f81519050919050565b5f82825260208201905092915050565b5f5b8381101561212c578082015181840152602081019050612111565b5f8484015250505050565b5f612141826120f5565b61214b81856120ff565b935061215b81856020860161210f565b61216481611dff565b840191505092915050565b5f6060820190506121825f8301866120e6565b81810360208301526121948185612137565b905081810360408301526121a88184612137565b9050949350505050565b5f602082840312156121c7576121c6611dbc565b5b5f82013567ffffffffffffffff8111156121e4576121e3611dc0565b5b6121f08482850161202c565b91505092915050565b5f8115159050919050565b61220d816121f9565b82525050565b5f6020820190506122265f830184612204565b92915050565b5f6020820190508181035f8301526122448184612137565b905092915050565b5f81519050919050565b5f82825260208201905092915050565b5f6122708261224c565b61227a8185612256565b935061228a81856020860161210f565b61229381611dff565b840191505092915050565b5f6020820190508181035f8301526122b68184612266565b905092915050565b5f67ffffffffffffffff82169050919050565b6122da816122be565b81146122e4575f80fd5b50565b5f813590506122f5816122d1565b92915050565b5f80fd5b5f80fd5b5f8083601f84011261231857612317611df7565b5b8235905067ffffffffffffffff811115612335576123346122fb565b5b602083019150836020820283011115612351576123506122ff565b5b9250929050565b5f805f6040848603121561236f5761236e611dbc565b5b5f61237c868287016122e7565b935050602084013567ffffffffffffffff81111561239d5761239c611dc0565b5b6123a986828701612303565b92509250509250925092565b6123be81611dc4565b82525050565b5f6020820190506123d75f8301846123b5565b92915050565b5f73ffffffffffffffffffffffffffffffffffffffff82169050919050565b5f612406826123dd565b9050919050565b612416816123fc565b82525050565b5f60208201905061242f5f83018461240d565b92915050565b5f805f6060848603121561244c5761244b611dbc565b5b5f84013567ffffffffffffffff81111561246957612468611dc0565b5b6124758682870161202c565b935050602084013567ffffffffffffffff81111561249657612495611dc0565b5b6124a28682870161202c565b925050604084013567ffffffffffffffff8111156124c3576124c2611dc0565b5b6124cf8682870161202c565b9150509250925092565b5f81519050919050565b5f82825260208201905092915050565b5f819050602082019050919050565b61250b81612059565b82525050565b5f82825260208201905092915050565b5f61252b826120f5565b6125358185612511565b935061254581856020860161210f565b61254e81611dff565b840191505092915050565b5f606083015f83015161256e5f860182612502565b50602083015184820360208601526125868282612521565b915050604083015184820360408601526125a08282612521565b9150508091505092915050565b5f6125b88383612559565b905092915050565b5f602082019050919050565b5f6125d6826124d9565b6125e081856124e3565b9350836020820285016125f2856124f3565b805f5b8581101561262d578484038952815161260e85826125ad565b9450612619836125c0565b925060208a019950506001810190506125f5565b50829750879550505050505092915050565b5f6020820190508181035f83015261265781846125cc565b905092915050565b612668816123fc565b8114612672575f80fd5b50565b5f813590506126838161265f565b92915050565b5f6020828403121561269e5761269d611dbc565b5b5f6126ab84828501612675565b91505092915050565b7f4e487b71000000000000000000000000000000000000000000000000000000005f52602260045260245ffd5b5f60028204905060018216806126f857607f821691505b60208210810361270b5761270a6126b4565b5b50919050565b5f67ffffffffffffffff82111561272b5761272a611e0f565b5b602082029050602081019050919050565b5f61274e61274984612711565b611e6d565b90508083825260208201905060208402830185811115612771576127706122ff565b5b835b818110156127b857803567ffffffffffffffff81111561279657612795611df7565b5b8086016127a3898261202c565b85526020850194505050602081019050612773565b5050509392505050565b5f6127ce36848461273c565b905092915050565b7f4e487b71000000000000000000000000000000000000000000000000000000005f52603260045260245ffd5b5f80fd5b5f80fd5b5f80fd5b5f808335600160200384360303811261282b5761282a612803565b5b80840192508235915067ffffffffffffffff82111561284d5761284c612807565b5b6020830192506001820236038313156128695761286861280b565b5b509250929050565b5f82905092915050565b5f819050815f5260205f209050919050565b5f6020601f8301049050919050565b5f82821b905092915050565b5f600883026128d77fffffffffffffffffffffffffffffffffffffffffffffffffffffffffffffffff8261289c565b6128e1868361289c565b95508019841693508086168417925050509392505050565b5f819050919050565b5f61291c61291761291284612059565b6128f9565b612059565b9050919050565b5f819050919050565b61293583612902565b61294961294182612923565b8484546128a8565b825550505050565b5f90565b61295d612951565b61296881848461292c565b505050565b5b8181101561298b576129805f82612955565b60018101905061296e565b5050565b601f8211156129d0576129a18161287b565b6129aa8461288d565b810160208510156129b9578190505b6129cd6129c58561288d565b83018261296d565b50505b505050565b5f82821c905092915050565b5f6129f05f19846008026129d5565b1980831691505092915050565b5f612a0883836129e1565b9150826002028217905092915050565b612a228383612871565b67ffffffffffffffff811115612a3b57612a3a611e0f565b5b612a4582546126e1565b612a5082828561298f565b5f601f831160018114612a7d575f8415612a6b578287013590505b612a7585826129fd565b865550612adc565b601f198416612a8b8661287b565b5f5b82811015612ab257848901358255600182019150602085019450602081019050612a8d565b86831015612acf5784890135612acb601f8916826129e1565b8355505b6001600288020188555050505b50505050505050565b5f81905092915050565b5f8154612afb816126e1565b612b058186612ae5565b9450600182165f8114612b1f5760018114612b3457612b66565b60ff1983168652811515820286019350612b66565b612b3d8561287b565b5f5b83811015612b5e57815481890152600182019150602081019050612b3f565b838801955050505b50505092915050565b5f612b7a8284612aef565b915081905092915050565b7f4d7573742062652070726f706f736564206f776e6572000000000000000000005f82015250565b5f612bb96016836120ff565b9150612bc482612b85565b602082019050919050565b5f6020820190508181035f830152612be681612bad565b9050919050565b5f612bf7826120f5565b612c018185612ae5565b9350612c1181856020860161210f565b80840191505092915050565b5f612c288284612bed565b915081905092915050565b612c3c826120f5565b67ffffffffffffffff811115612c5557612c54611e0f565b5b612c5f82546126e1565b612c6a82828561298f565b5f60209050601f831160018114612c9b575f8415612c89578287015190505b612c9385826129fd565b865550612cfa565b601f198416612ca98661287b565b5f5b82811015612cd057848901518255600182019150602085019450602081019050612cab565b86831015612ced5784890151612ce9601f8916826129e1565b8355505b6001600288020188555050505b505050505050565b5f608082019050612d155f8301876120e6565b8181036020830152612d278186612137565b90508181036040830152612d3b8185612137565b90508181036060830152612d4f8184612137565b905095945050505050565b7f537472696e6720657863656564732033322062797465730000000000000000005f82015250565b5f612d8e6017836120ff565b9150612d9982612d5a565b602082019050919050565b5f6020820190508181035f830152612dbb81612d82565b9050919050565b5f819050815f5260205f209050919050565b601f821115612e1557612de681612dc2565b612def8461288d565b81016020851015612dfe578190505b612e12612e0a8561288d565b83018261296d565b50505b505050565b612e238261224c565b67ffffffffffffffff811115612e3c57612e3b611e0f565b5b612e4682546126e1565b612e51828285612dd4565b5f60209050601f831160018114612e82575f8415612e70578287015190505b612e7a85826129fd565b865550612ee1565b601f198416612e9086612dc2565b5f5b82811015612eb757848901518255600182019150602085019450602081019050612e92565b86831015612ed45784890151612ed0601f8916826129e1565b8355505b6001600288020188555050505b505050505050565b5f81549050612ef7816126e1565b9050919050565b5f819050815f5260205f209050919050565b818103612f1e575050612ff3565b612f2782612ee9565b67ffffffffffffffff811115612f4057612f3f611e0f565b5b612f4a82546126e1565b612f5582828561298f565b5f601f831160018114612f82575f8415612f70578287015490505b612f7a85826129fd565b865550612fec565b601f198416612f9087612efe565b9650612f9b8661287b565b5f5b82811015612fc257848901548255600182019150600185019450602081019050612f9d565b86831015612fdf5784890154612fdb601f8916826129e1565b8355505b6001600288020188555050505b5050505050505b565b5f8154613001816126e1565b61300b81866120ff565b9450600182165f8114613025576001811461303b5761306d565b60ff19831686528115156020028601935061306d565b6130448561287b565b5f5b8381101561306557815481890152600182019150602081019050613046565b808801955050505b50505092915050565b5f8154613082816126e1565b61308c8186612256565b9450600182165f81146130a657600181146130bc576130ee565b60ff1983168652811515602002860193506130ee565b6130c585612dc2565b5f5b838110156130e6578154818901526001820191506020810190506130c7565b808801955050505b50505092915050565b5f6060820190508181035f83015261310f8186612ff5565b905081810360208301526131238185613076565b905081810360408301526131378184613076565b9050949350505050565b7f4f6e6c792063616c6c61626c65206279206f776e6572000000000000000000005f82015250565b5f6131756016836120ff565b915061318082613141565b602082019050919050565b5f6020820190508181035f8301526131a281613169565b9050919050565b7f4e487b71000000000000000000000000000000000000000000000000000000005f52602160045260245ffd5b7f4e487b71000000000000000000000000000000000000000000000000000000005f52601160045260245ffd5b5f61320d82612059565b91507fffffffffffffffffffffffffffffffffffffffffffffffffffffffffffffffff820361323f5761323e6131d6565b5b600182019050919050565b613253816122be565b82525050565b5f61ffff82169050919050565b61326f81613259565b82525050565b5f63ffffffff82169050919050565b61328d81613275565b82525050565b5f60a0820190506132a65f83018861324a565b81810360208301526132b88187612266565b90506132c76040830186613266565b6132d46060830185613284565b6132e160808301846123b5565b9695505050505050565b5f815190506132f981611dcd565b92915050565b5f6020828403121561331457613313611dbc565b5b5f613321848285016132eb565b91505092915050565b7f43616e6e6f74207472616e7366657220746f2073656c660000000000000000005f82015250565b5f61335e6017836120ff565b91506133698261332a565b602082019050919050565b5f6020820190508181035f83015261338b81613352565b9050919050565b5f6020820190506133a55f8301846120e6565b92915050565b5f6133b582612059565b91506133c083612059565b92508282019050808211156133d8576133d76131d6565b5b92915050565b5f6133e882612059565b91506133f383612059565b925082820390508181111561340b5761340a6131d6565b5b92915050565b7f4e487b71000000000000000000000000000000000000000000000000000000005f52601260045260245ffd5b5f61344882612059565b915061345383612059565b92508261346357613462613411565b5b828206905092915050565b5f61347882612059565b915061348383612059565b925082820261349181612059565b915082820484148315176134a8576134a76131d6565b5b5092915050565b5f8160011c9050919050565b5f808291508390505b6001851115613504578086048111156134e0576134df6131d6565b5b60018516156134ef5780820291505b80810290506134fd856134af565b94506134c4565b94509492505050565b5f8261351c57600190506135d7565b81613529575f90506135d7565b816001811461353f576002811461354957613578565b60019150506135d7565b60ff84111561355b5761355a6131d6565b5b8360020a915084821115613572576135716131d6565b5b506135d7565b5060208310610133831016604e8410600b84101617156135ad5782820a9050838111156135a8576135a76131d6565b5b6135d7565b6135ba84848460016134bb565b925090508184048111156135d1576135d06131d6565b5b81810290505b9392505050565b5f6135e882612059565b91506135f383612059565b92506136207fffffffffffffffffffffffffffffffffffffffffffffffffffffffffffffffff848461350d565b90509291505056fea264697066735822122030d10258d1c7707b79774d745e73dabe82945ad296bd32bf3a75b9a368f5d86a64736f6c63430008140033636f6e737420656d61696c203d20617267735b305d3b636f6e7374206170705f6964203d20617267735b315d3b636f6e73742075726c203d20617267735b325d3b636f6e737420706172616d203d207b27656d61696c273a20656d61696c2c276170705f6964273a206170705f69647d3b636f6e737420636865636b4365727452657175657374203d2046756e6374696f6e732e6d616b654874747052657175657374287b75726c3a2075726c2c6d6574686f643a2027504f5354272c686561646572733a207b27636f6e74656e742d54797065273a20276170706c69636174696f6e2f6a736f6e272c7d2c74696d656f75743a2039303030202c646174613a20706172616d2c7d293b636f6e737420636865636b43657274526573706f6e7365203d20617761697420636865636b43657274526571756573743b69662028636865636b43657274526573706f6e73652e6572726f7229207b636f6e736f6c652e6c6f6728636865636b43657274526573706f6e73652e6572726f72293b636f6e736f6c652e6c6f6728636865636b43657274526573706f6e7365293b7468726f77204572726f72286052657175657374206661696c65643a60202b20656d61696c202b273b27202b206170705f6964202b273b27202b20636865636b43657274526573706f6e73652e6d657373616765293b7d636f6e73742072657144617461203d20636865636b43657274526573706f6e73652e646174613b636f6e737420726573756c743d20726571446174612e726573756c742e7472696d28293b72657475726e2046756e6374696f6e732e656e636f6465537472696e6728726573756c74293b",
  "immutableReferences": {
    "17": [
      {
        "length": 32,
        "start": 865
      },
      {
        "length": 32,
        "start": 5383
      }
    ]
  },
  "source": "// SPDX-License-Identifier: MIT\r\npragma solidity ^0.8.19;\r\n\r\nimport {FunctionsClient} from \"@chainlink/contracts/src/v0.8/functions/dev/v1_0_0/FunctionsClient.sol\";\r\nimport {ConfirmedOwner} from \"@chainlink/contracts/src/v0.8/shared/access/ConfirmedOwner.sol\";\r\nimport {FunctionsRequest} from \"@chainlink/contracts/src/v0.8/functions/dev/v1_0_0/libraries/FunctionsRequest.sol\";\r\n//import \"./strings.sol\";\r\ncontract ScolaireApplication is FunctionsClient, ConfirmedOwner {\r\n    using FunctionsRequest for FunctionsRequest.Request;\r\n    //using strings for *;\r\n    // State variables to store the last request ID, response, and error\r\n    bytes32 public s_lastRequestId;\r\n    bytes32 public s_lastFullfilledRequestId;\r\n    bytes public s_lastResponse;\r\n    bytes public s_lastError;\r\n    \r\n    string public s_lastAppNo;\r\n    mapping(string => bool) public fulfilled;\r\n    mapping(string => string) public checkResults;\r\n    uint32 private s_recordCounter;\r\n\r\n\r\n    struct StatusChange {\r\n        uint time;\r\n        string status;  \r\n        string checkResult;\r\n    }\r\n\r\n    mapping(string => StatusChange[]) public statushistory;\r\n\r\n\r\n\r\n    event StatusUpdate(address indexed _from, uint updateTime, string  appNo, string newStatus, string checkResult);\r\n\r\n    // Function to update status\r\n    function updateStatus(string memory appNo, string memory newStatus, string memory checkResult) public {\r\n        // Push new status change to array\r\n        uint updateTime =block.timestamp;\r\n        statushistory[appNo].push(StatusChange(updateTime, newStatus, checkResult));\r\n\r\n        // bytes memory tempEmptyStringTest = bytes(checkResult); // Uses memory\r\n        // if (tempEmptyStringTest.length != 0) {\r\n        //     // emptyStringTest is an empty string\r\n        //     checkResults[appNo] = checkResult;\r\n        // }\r\n        emit StatusUpdate(msg.sender, updateTime, appNo,  newStatus, checkResult);\r\n    }\r\n\r\n    // Function to get full history for applicant\r\n    function getHistory(string memory appNo) public view returns(StatusChange[] memory) {\r\n        return statushistory[appNo];\r\n    }\r\n\r\n\r\n    // Custom error type\r\n    error UnexpectedRequestID(bytes32 requestId);\r\n\r\n    // Event to log responses\r\n    event Response(\r\n        bytes32 indexed requestId,\r\n        string character,\r\n        bytes response,\r\n        bytes err\r\n    );\r\n\r\n    // Router address - Hardcoded \r\n    // Check to get the router address for your supported network https://docs.chain.link/chainlink-functions/supported-networks\r\n    address router = 0xb83E47C2bC239B3bf370bc41e1459A34b41238D0; //sepoia\r\n    //address router = 0x6E2dc0F9DB014aE19888F539E59285D2Ea04244C; //mumbai\r\n    // JavaScript source code\r\n    string source =\r\n    \"const email = args[0];\"\r\n    \"const app_id = args[1];\"\r\n    \"const url = args[2];\"\r\n    \"const param = {'email': email,'app_id': app_id};\"\r\n    \"const checkCertRequest = Functions.makeHttpRequest({\"\r\n    \"url: url,\"\r\n    \"method: 'POST',\"\r\n    \"headers: {'content-Type': 'application/json',},\"\r\n    \"timeout: 9000 ,\"\r\n    \"data: param,});\"\r\n    \"const checkCertResponse = await checkCertRequest;\"\r\n    \"if (checkCertResponse.error) {\"\r\n    \"console.log(checkCertResponse.error);\"\r\n    \"console.log(checkCertResponse);\"\r\n    \"throw Error(`Request failed:` + email +';' + app_id +';' + checkCertResponse.message);\"\r\n    \"}\"\r\n    \"const reqData = checkCertResponse.data;\"\r\n    \"const result= reqData.result.trim();\"\r\n    \"return Functions.encodeString(result);\";\r\n\r\n\r\n    //Callback gas limit\r\n    uint32 gasLimit = 300000;\r\n\r\n    // donID - Hardcoded for Mumbai\r\n    // Check to get the donID for your supported network https://docs.chain.link/chainlink-functions/supported-networks\r\n    bytes32 donID = 0x66756e2d657468657265756d2d7365706f6c69612d3100000000000000000000; //sepolia\r\n    //bytes32 donID = 0x66756e2d706f6c79676f6e2d6d756d6261692d31000000000000000000000000; //Mumbai\r\n    // State variable to store the returned checkresult information\r\n    string public s_checkresult;\r\n\r\n    /**\r\n     * @notice Initializes the contract with the Chainlink router address and sets the contract owner\r\n     */\r\n    constructor() FunctionsClient(router) ConfirmedOwner(msg.sender) {\r\n        // address storageAddress = 0xD352Bc334bfbbcE34b5B44803E72Bf47203a625b;\r\n        // s_recordCounter =0;\r\n        // storageContract = AdmissionStorage(storageAddress);\r\n    }\r\n\r\n    /**\r\n     * @notice Sends an HTTP request for checkresult information\r\n     * @param subscriptionId The ID for the Chainlink subscription\r\n     * @param args The arguments to pass to the HTTP request\r\n     * @return requestId The ID of the request\r\n     */\r\n    function sendRequest(\r\n        uint64 subscriptionId,\r\n        string[] calldata args\r\n    ) external onlyOwner returns (bytes32 requestId) {\r\n        s_lastRequestId = bytes32(0);\r\n        FunctionsRequest.Request memory req;\r\n        req.initializeRequestForInlineJavaScript(source); // Initialize the request with JS code\r\n        if (args.length > 0) req.setArgs(args); // Set the arguments for the request\r\n        s_lastAppNo = args[1];\r\n        // Send the request and store the request ID\r\n        s_lastRequestId = _sendRequest(\r\n            req.encodeCBOR(),\r\n            subscriptionId,\r\n            gasLimit,\r\n            donID\r\n        );\r\n        fulfilled[s_lastAppNo] = false;    //args[1] is the applNo\r\n\r\n        s_lastFullfilledRequestId = bytes32(0);\r\n        return s_lastRequestId;\r\n    }\r\n\r\n    /**\r\n     * @notice Callback function for fulfilling a request\r\n     * @param requestId The ID of the request to fulfill\r\n     * @param response The HTTP response data\r\n     * @param err Any errors from the Functions request\r\n     */\r\n    function fulfillRequest(\r\n        bytes32 requestId,\r\n        bytes memory response,\r\n        bytes memory err\r\n    ) internal override {\r\n        if (s_lastRequestId != requestId) {\r\n            revert UnexpectedRequestID(requestId); // Check if request IDs match\r\n        }\r\n        // Update the contract's state variables with the response and any errors\r\n        s_lastResponse = response;\r\n        // string memory temp = string(response);\r\n        s_checkresult = string(response);\r\n        // s_lastError = err;\r\n        // //perform checing of program requirement\r\n        // strings.slice memory s = temp.toSlice();\r\n        // strings.slice memory delim = \"#\".toSlice();\r\n        // string memory appNo = s.split(delim).toString();\r\n \r\n        s_lastFullfilledRequestId = requestId;\r\n        checkResults[s_lastAppNo] = s_checkresult;\r\n        fulfilled[s_lastAppNo] = true;\r\n        // s_temp_appno = stringToBytes32(applNo);\r\n        \r\n        //s_recordCounter ++;\r\n        //storageIndex[requestId] = s_recordCounter;\r\n       \r\n        emit Response(requestId, s_checkresult, s_lastResponse, s_lastError);\r\n    }\r\n    function stringToBytes32(string memory str) public pure returns (bytes32) {\r\n        bytes memory strBytes = bytes(str);\r\n        require(strBytes.length <= 32, \"String exceeds 32 bytes\");\r\n\r\n        bytes32 result;\r\n        assembly {\r\n            // Store the string bytes in memory\r\n            let memPtr := add(strBytes, 32)\r\n            // Convert the bytes to bytes32 and store the result\r\n            result := mload(memPtr)\r\n        }\r\n\r\n        return result;\r\n    }\r\n   \r\n \r\n\r\n}\r\n",
  "sourcePath": "C:\\Boris\\Development\\HKIT_project\\admission_smart_contract\\contracts\\ScolaireApplication.sol",
  "compiler": {
    "name": "solc",
    "version": "0.8.20+commit.a1b79de6.Emscripten.clang"
  },
  "schemaVersion": "3.4.16",
  "updatedAt": "2024-04-14T03:22:39.766Z",
  "networkType": "ethereum",
  "devdoc": {
    "kind": "dev",
    "methods": {
      "handleOracleFulfillment(bytes32,bytes,bytes)": {
        "details": "Either response or error parameter will be set, but never both.",
        "params": {
          "err": "Aggregated error either from the request's source code or from the execution pipeline.",
          "requestId": "The requestId returned by FunctionsClient.sendRequest().",
          "response": "Aggregated response from the request's source code."
        }
      },
      "sendRequest(uint64,string[])": {
        "params": {
          "args": "The arguments to pass to the HTTP request",
          "subscriptionId": "The ID for the Chainlink subscription"
        },
        "returns": {
          "requestId": "The ID of the request"
        }
      }
    },
    "version": 1
  },
  "userdoc": {
    "kind": "user",
    "methods": {
      "acceptOwnership()": {
        "notice": "Allows an ownership transfer to be completed by the recipient."
      },
      "constructor": {
        "notice": "Initializes the contract with the Chainlink router address and sets the contract owner"
      },
      "handleOracleFulfillment(bytes32,bytes,bytes)": {
        "notice": "Chainlink Functions response handler called by the Functions Router during fullilment from the designated transmitter node in an OCR round."
      },
      "owner()": {
        "notice": "Get the current owner"
      },
      "sendRequest(uint64,string[])": {
        "notice": "Sends an HTTP request for checkresult information"
      },
      "transferOwnership(address)": {
        "notice": "Allows an owner to begin transferring ownership to a new address, pending."
      }
    },
    "version": 1
  }
}